{
  "contractName": "AINCTokenCrowdsale",
  "abi": [
    {
      "inputs": [
        {
          "internalType": "uint256",
          "name": "rate",
          "type": "uint256"
        },
        {
          "internalType": "address payable",
          "name": "wallet",
          "type": "address"
        },
        {
          "internalType": "contract IERC20",
          "name": "token",
          "type": "address"
        },
        {
          "internalType": "address",
          "name": "tokenOwner",
          "type": "address"
        },
        {
          "internalType": "uint256",
          "name": "softcap",
          "type": "uint256"
        },
        {
          "internalType": "uint256",
          "name": "hardcap",
          "type": "uint256"
        },
        {
          "internalType": "uint256",
          "name": "startTime",
          "type": "uint256"
        },
        {
          "internalType": "uint256",
          "name": "endTime",
          "type": "uint256"
        }
      ],
      "payable": false,
      "stateMutability": "nonpayable",
      "type": "constructor"
    },
    {
      "anonymous": false,
      "inputs": [],
      "name": "CrowdsaleFinalized",
      "type": "event"
    },
    {
      "anonymous": false,
      "inputs": [
        {
          "indexed": false,
          "internalType": "uint256",
          "name": "prevClosingTime",
          "type": "uint256"
        },
        {
          "indexed": false,
          "internalType": "uint256",
          "name": "newClosingTime",
          "type": "uint256"
        }
      ],
      "name": "TimedCrowdsaleExtended",
      "type": "event"
    },
    {
      "anonymous": false,
      "inputs": [
        {
          "indexed": true,
          "internalType": "address",
          "name": "purchaser",
          "type": "address"
        },
        {
          "indexed": true,
          "internalType": "address",
          "name": "beneficiary",
          "type": "address"
        },
        {
          "indexed": false,
          "internalType": "uint256",
          "name": "value",
          "type": "uint256"
        },
        {
          "indexed": false,
          "internalType": "uint256",
          "name": "amount",
          "type": "uint256"
        }
      ],
      "name": "TokensPurchased",
      "type": "event"
    },
    {
      "anonymous": false,
      "inputs": [
        {
          "indexed": true,
          "internalType": "address",
          "name": "account",
          "type": "address"
        }
      ],
      "name": "WhitelistAdminAdded",
      "type": "event"
    },
    {
      "anonymous": false,
      "inputs": [
        {
          "indexed": true,
          "internalType": "address",
          "name": "account",
          "type": "address"
        }
      ],
      "name": "WhitelistAdminRemoved",
      "type": "event"
    },
    {
      "anonymous": false,
      "inputs": [
        {
          "indexed": true,
          "internalType": "address",
          "name": "account",
          "type": "address"
        }
      ],
      "name": "WhitelistedAdded",
      "type": "event"
    },
    {
      "anonymous": false,
      "inputs": [
        {
          "indexed": true,
          "internalType": "address",
          "name": "account",
          "type": "address"
        }
      ],
      "name": "WhitelistedRemoved",
      "type": "event"
    },
    {
      "payable": true,
      "stateMutability": "payable",
      "type": "fallback"
    },
    {
      "constant": false,
      "inputs": [
        {
          "internalType": "address",
          "name": "account",
          "type": "address"
        }
      ],
      "name": "addWhitelistAdmin",
      "outputs": [],
      "payable": false,
      "stateMutability": "nonpayable",
      "type": "function"
    },
    {
      "constant": false,
      "inputs": [
        {
          "internalType": "address",
          "name": "account",
          "type": "address"
        }
      ],
      "name": "addWhitelisted",
      "outputs": [],
      "payable": false,
      "stateMutability": "nonpayable",
      "type": "function"
    },
    {
      "constant": false,
      "inputs": [
        {
          "internalType": "address",
          "name": "beneficiary",
          "type": "address"
        }
      ],
      "name": "buyTokens",
      "outputs": [],
      "payable": true,
      "stateMutability": "payable",
      "type": "function"
    },
    {
      "constant": true,
      "inputs": [],
      "name": "cap",
      "outputs": [
        {
          "internalType": "uint256",
          "name": "",
          "type": "uint256"
        }
      ],
      "payable": false,
      "stateMutability": "view",
      "type": "function"
    },
    {
      "constant": true,
      "inputs": [],
      "name": "capReached",
      "outputs": [
        {
          "internalType": "bool",
          "name": "",
          "type": "bool"
        }
      ],
      "payable": false,
      "stateMutability": "view",
      "type": "function"
    },
    {
      "constant": false,
      "inputs": [
        {
          "internalType": "address payable",
          "name": "refundee",
          "type": "address"
        }
      ],
      "name": "claimRefund",
      "outputs": [],
      "payable": false,
      "stateMutability": "nonpayable",
      "type": "function"
    },
    {
      "constant": true,
      "inputs": [],
      "name": "closingTime",
      "outputs": [
        {
          "internalType": "uint256",
          "name": "",
          "type": "uint256"
        }
      ],
      "payable": false,
      "stateMutability": "view",
      "type": "function"
    },
    {
      "constant": false,
      "inputs": [],
      "name": "finalize",
      "outputs": [],
      "payable": false,
      "stateMutability": "nonpayable",
      "type": "function"
    },
    {
      "constant": true,
      "inputs": [],
      "name": "finalized",
      "outputs": [
        {
          "internalType": "bool",
          "name": "",
          "type": "bool"
        }
      ],
      "payable": false,
      "stateMutability": "view",
      "type": "function"
    },
    {
      "constant": true,
      "inputs": [],
      "name": "goal",
      "outputs": [
        {
          "internalType": "uint256",
          "name": "",
          "type": "uint256"
        }
      ],
      "payable": false,
      "stateMutability": "view",
      "type": "function"
    },
    {
      "constant": true,
      "inputs": [],
      "name": "goalReached",
      "outputs": [
        {
          "internalType": "bool",
          "name": "",
          "type": "bool"
        }
      ],
      "payable": false,
      "stateMutability": "view",
      "type": "function"
    },
    {
      "constant": true,
      "inputs": [],
      "name": "hasClosed",
      "outputs": [
        {
          "internalType": "bool",
          "name": "",
          "type": "bool"
        }
      ],
      "payable": false,
      "stateMutability": "view",
      "type": "function"
    },
    {
      "constant": true,
      "inputs": [],
      "name": "isOpen",
      "outputs": [
        {
          "internalType": "bool",
          "name": "",
          "type": "bool"
        }
      ],
      "payable": false,
      "stateMutability": "view",
      "type": "function"
    },
    {
      "constant": true,
      "inputs": [
        {
          "internalType": "address",
          "name": "account",
          "type": "address"
        }
      ],
      "name": "isWhitelistAdmin",
      "outputs": [
        {
          "internalType": "bool",
          "name": "",
          "type": "bool"
        }
      ],
      "payable": false,
      "stateMutability": "view",
      "type": "function"
    },
    {
      "constant": true,
      "inputs": [
        {
          "internalType": "address",
          "name": "account",
          "type": "address"
        }
      ],
      "name": "isWhitelisted",
      "outputs": [
        {
          "internalType": "bool",
          "name": "",
          "type": "bool"
        }
      ],
      "payable": false,
      "stateMutability": "view",
      "type": "function"
    },
    {
      "constant": true,
      "inputs": [],
      "name": "openingTime",
      "outputs": [
        {
          "internalType": "uint256",
          "name": "",
          "type": "uint256"
        }
      ],
      "payable": false,
      "stateMutability": "view",
      "type": "function"
    },
    {
      "constant": true,
      "inputs": [],
      "name": "rate",
      "outputs": [
        {
          "internalType": "uint256",
          "name": "",
          "type": "uint256"
        }
      ],
      "payable": false,
      "stateMutability": "view",
      "type": "function"
    },
    {
      "constant": true,
      "inputs": [],
      "name": "remainingTokens",
      "outputs": [
        {
          "internalType": "uint256",
          "name": "",
          "type": "uint256"
        }
      ],
      "payable": false,
      "stateMutability": "view",
      "type": "function"
    },
    {
      "constant": false,
      "inputs": [
        {
          "internalType": "address",
          "name": "account",
          "type": "address"
        }
      ],
      "name": "removeWhitelisted",
      "outputs": [],
      "payable": false,
      "stateMutability": "nonpayable",
      "type": "function"
    },
    {
      "constant": false,
      "inputs": [],
      "name": "renounceWhitelistAdmin",
      "outputs": [],
      "payable": false,
      "stateMutability": "nonpayable",
      "type": "function"
    },
    {
      "constant": false,
      "inputs": [],
      "name": "renounceWhitelisted",
      "outputs": [],
      "payable": false,
      "stateMutability": "nonpayable",
      "type": "function"
    },
    {
      "constant": true,
      "inputs": [],
      "name": "stage",
      "outputs": [
        {
          "internalType": "enum AINCTokenCrowdsale.CrowdsaleStage",
          "name": "",
          "type": "uint8"
        }
      ],
      "payable": false,
      "stateMutability": "view",
      "type": "function"
    },
    {
      "constant": true,
      "inputs": [],
      "name": "token",
      "outputs": [
        {
          "internalType": "contract IERC20",
          "name": "",
          "type": "address"
        }
      ],
      "payable": false,
      "stateMutability": "view",
      "type": "function"
    },
    {
      "constant": true,
      "inputs": [],
      "name": "tokenWallet",
      "outputs": [
        {
          "internalType": "address",
          "name": "",
          "type": "address"
        }
      ],
      "payable": false,
      "stateMutability": "view",
      "type": "function"
    },
    {
      "constant": true,
      "inputs": [],
      "name": "wallet",
      "outputs": [
        {
          "internalType": "address payable",
          "name": "",
          "type": "address"
        }
      ],
      "payable": false,
      "stateMutability": "view",
      "type": "function"
    },
    {
      "constant": true,
      "inputs": [],
      "name": "weiRaised",
      "outputs": [
        {
          "internalType": "uint256",
          "name": "",
          "type": "uint256"
        }
      ],
      "payable": false,
      "stateMutability": "view",
      "type": "function"
    },
    {
      "constant": false,
      "inputs": [],
      "name": "changeRound",
      "outputs": [],
      "payable": false,
      "stateMutability": "nonpayable",
      "type": "function"
    }
  ],
  "bytecode": "0x608060405262278d0042016011556000601260006101000a81548160ff021916908360058111156200002d57fe5b02179055503480156200003f57600080fd5b50604051620048883803806200488883398181016040526101008110156200006657600080fd5b81019080805190602001909291908051906020019092919080519060200190929190805190602001909291908051906020019092919080519060200190929190805190602001909291908051906020019092919050505084848383868c8c8c336000806101000a81548173ffffffffffffffffffffffffffffffffffffffff021916908373ffffffffffffffffffffffffffffffffffffffff16021790555062000125620001196200076460201b60201c565b6200076c60201b60201c565b6001600360006101000a81548160ff02191690831515021790555060008311620001b7576040517f08c379a00000000000000000000000000000000000000000000000000000000081526004018080602001828103825260148152602001807f43726f776473616c653a2072617465206973203000000000000000000000000081525060200191505060405180910390fd5b600073ffffffffffffffffffffffffffffffffffffffff168273ffffffffffffffffffffffffffffffffffffffff1614156200023f576040517f08c379a0000000000000000000000000000000000000000000000000000000008152600401808060200182810382526025815260200180620048636025913960400191505060405180910390fd5b600073ffffffffffffffffffffffffffffffffffffffff168173ffffffffffffffffffffffffffffffffffffffff161415620002c7576040517f08c379a00000000000000000000000000000000000000000000000000000000081526004018080602001828103825260248152602001806200481d6024913960400191505060405180910390fd5b8260058190555081600460006101000a81548173ffffffffffffffffffffffffffffffffffffffff021916908373ffffffffffffffffffffffffffffffffffffffff16021790555080600360016101000a81548173ffffffffffffffffffffffffffffffffffffffff021916908373ffffffffffffffffffffffffffffffffffffffff16021790555050505060008111620003ca576040517f08c379a00000000000000000000000000000000000000000000000000000000081526004018080602001828103825260198152602001807f43617070656443726f776473616c653a2063617020697320300000000000000081525060200191505060405180910390fd5b8060078190555050428210156200042d576040517f08c379a00000000000000000000000000000000000000000000000000000000081526004018080602001828103825260338152602001806200475d6033913960400191505060405180910390fd5b81811162000487576040517f08c379a0000000000000000000000000000000000000000000000000000000008152600401808060200182810382526037815260200180620047e66037913960400191505060405180910390fd5b816008819055508060098190555050506000600a60006101000a81548160ff0219169083151502179055506000811162000529576040517f08c379a000000000000000000000000000000000000000000000000000000000815260040180806020018281038252601e8152602001807f526566756e6461626c6543726f776473616c653a20676f616c2069732030000081525060200191505060405180910390fd5b62000539620007cd60201b60201c565b604051620005479062000be7565b808273ffffffffffffffffffffffffffffffffffffffff1673ffffffffffffffffffffffffffffffffffffffff168152602001915050604051809103906000f0801580156200059a573d6000803e3d6000fd5b50600c60006101000a81548173ffffffffffffffffffffffffffffffffffffffff021916908373ffffffffffffffffffffffffffffffffffffffff16021790555080600b8190555050600073ffffffffffffffffffffffffffffffffffffffff168173ffffffffffffffffffffffffffffffffffffffff1614156200066b576040517f08c379a0000000000000000000000000000000000000000000000000000000008152600401808060200182810382526034815260200180620047b26034913960400191505060405180910390fd5b80600d60006101000a81548173ffffffffffffffffffffffffffffffffffffffff021916908373ffffffffffffffffffffffffffffffffffffffff1602179055505060008811620006bb57600080fd5b600073ffffffffffffffffffffffffffffffffffffffff168773ffffffffffffffffffffffffffffffffffffffff161415620006f657600080fd5b600073ffffffffffffffffffffffffffffffffffffffff168673ffffffffffffffffffffffffffffffffffffffff1614156200073157600080fd5b8760108190555081600f8190555080600e8190555062000756620007f760201b60201c565b505050505050505062000bf5565b600033905090565b6200078781600162000a2360201b62001bce1790919060201c565b8073ffffffffffffffffffffffffffffffffffffffff167f22380c05984257a1cb900161c713dd71d39e74820f1aea43bd3f1bdd2096129960405160405180910390a250565b6000600460009054906101000a900473ffffffffffffffffffffffffffffffffffffffff16905090565b6000809054906101000a900473ffffffffffffffffffffffffffffffffffffffff1673ffffffffffffffffffffffffffffffffffffffff163373ffffffffffffffffffffffffffffffffffffffff16146200089e576040517f08c379a0000000000000000000000000000000000000000000000000000000008152600401808060200182810382526022815260200180620047906022913960400191505060405180910390fd5b600e5442111562000917576040517f08c379a00000000000000000000000000000000000000000000000000000000081526004018080602001828103825260138152602001807f43726f776453616c652068617320456e6465640000000000000000000000000081525060200191505060405180910390fd5b600060058111156200092557fe5b601260009054906101000a900460ff1660058111156200094157fe5b14156200095a5760026010540260108190555062000a21565b600160058111156200096857fe5b601260009054906101000a900460ff1660058111156200098457fe5b1480620009b85750600260058111156200099a57fe5b601260009054906101000a900460ff166005811115620009b657fe5b145b80620009eb575060036005811115620009cd57fe5b601260009054906101000a900460ff166005811115620009e957fe5b145b1562000a0b57600260105481620009fe57fe5b0460108190555062000a20565b60046010548162000a1857fe5b046010819055505b5b565b62000a35828262000b0760201b60201c565b1562000aa9576040517f08c379a000000000000000000000000000000000000000000000000000000000815260040180806020018281038252601f8152602001807f526f6c65733a206163636f756e7420616c72656164792068617320726f6c650081525060200191505060405180910390fd5b60018260000160008373ffffffffffffffffffffffffffffffffffffffff1673ffffffffffffffffffffffffffffffffffffffff16815260200190815260200160002060006101000a81548160ff0219169083151502179055505050565b60008073ffffffffffffffffffffffffffffffffffffffff168273ffffffffffffffffffffffffffffffffffffffff16141562000b90576040517f08c379a0000000000000000000000000000000000000000000000000000000008152600401808060200182810382526022815260200180620048416022913960400191505060405180910390fd5b8260000160008373ffffffffffffffffffffffffffffffffffffffff1673ffffffffffffffffffffffffffffffffffffffff16815260200190815260200160002060009054906101000a900460ff16905092915050565b611632806200312b83390190565b6125268062000c056000396000f3fe60806040526004361061019c5760003560e01c8063521eb273116100ec578063bff99c6c1161008a578063d6cd947311610064578063d6cd9473146106f1578063dd506e0914610708578063ec8ac4d81461071f578063fc0c546a146107635761019c565b8063bff99c6c14610610578063bffa55d514610667578063c040e6b8146106b85761019c565b8063b3f05b97116100c6578063b3f05b9714610522578063b7a8807c14610551578063bb5f747b1461057c578063bf583903146105e55761019c565b8063521eb2731461044b5780637362d9c8146104a25780637d3d6522146104f35761019c565b806340193883116101595780634b6753bc116101335780634b6753bc146103c35780634bb278f3146103ee5780634c5a628c146104055780634f9359451461041c5761019c565b8063401938831461033e5780634042b66f1461036957806347535d7b146103945761019c565b806310154bad146101ae5780631515bc2b146101ff578063291d95491461022e5780632c4e722e1461027f578063355274ea146102aa5780633af32abf146102d5575b6101ac6101a76107ba565b6107c2565b005b3480156101ba57600080fd5b506101fd600480360360208110156101d157600080fd5b81019080803573ffffffffffffffffffffffffffffffffffffffff169060200190929190505050610950565b005b34801561020b57600080fd5b506102146109c1565b604051808215151515815260200191505060405180910390f35b34801561023a57600080fd5b5061027d6004803603602081101561025157600080fd5b81019080803573ffffffffffffffffffffffffffffffffffffffff1690602001909291905050506109cd565b005b34801561028b57600080fd5b50610294610a3e565b6040518082815260200191505060405180910390f35b3480156102b657600080fd5b506102bf610a48565b6040518082815260200191505060405180910390f35b3480156102e157600080fd5b50610324600480360360208110156102f857600080fd5b81019080803573ffffffffffffffffffffffffffffffffffffffff169060200190929190505050610a52565b604051808215151515815260200191505060405180910390f35b34801561034a57600080fd5b50610353610a6f565b6040518082815260200191505060405180910390f35b34801561037557600080fd5b5061037e610a79565b6040518082815260200191505060405180910390f35b3480156103a057600080fd5b506103a9610a83565b604051808215151515815260200191505060405180910390f35b3480156103cf57600080fd5b506103d8610a9e565b6040518082815260200191505060405180910390f35b3480156103fa57600080fd5b50610403610aa8565b005b34801561041157600080fd5b5061041a610bd9565b005b34801561042857600080fd5b50610431610beb565b604051808215151515815260200191505060405180910390f35b34801561045757600080fd5b50610460610bff565b604051808273ffffffffffffffffffffffffffffffffffffffff1673ffffffffffffffffffffffffffffffffffffffff16815260200191505060405180910390f35b3480156104ae57600080fd5b506104f1600480360360208110156104c557600080fd5b81019080803573ffffffffffffffffffffffffffffffffffffffff169060200190929190505050610c29565b005b3480156104ff57600080fd5b50610508610c9a565b604051808215151515815260200191505060405180910390f35b34801561052e57600080fd5b50610537610cae565b604051808215151515815260200191505060405180910390f35b34801561055d57600080fd5b50610566610cc5565b6040518082815260200191505060405180910390f35b34801561058857600080fd5b506105cb6004803603602081101561059f57600080fd5b81019080803573ffffffffffffffffffffffffffffffffffffffff169060200190929190505050610ccf565b604051808215151515815260200191505060405180910390f35b3480156105f157600080fd5b506105fa610cec565b6040518082815260200191505060405180910390f35b34801561061c57600080fd5b50610625610ef1565b604051808273ffffffffffffffffffffffffffffffffffffffff1673ffffffffffffffffffffffffffffffffffffffff16815260200191505060405180910390f35b34801561067357600080fd5b506106b66004803603602081101561068a57600080fd5b81019080803573ffffffffffffffffffffffffffffffffffffffff169060200190929190505050610f1b565b005b3480156106c457600080fd5b506106cd611092565b604051808260058111156106dd57fe5b60ff16815260200191505060405180910390f35b3480156106fd57600080fd5b506107066110a5565b005b34801561071457600080fd5b5061071d6110b7565b005b6107616004803603602081101561073557600080fd5b81019080803573ffffffffffffffffffffffffffffffffffffffff1690602001909291905050506107c2565b005b34801561076f57600080fd5b506107786112a1565b604051808273ffffffffffffffffffffffffffffffffffffffff1673ffffffffffffffffffffffffffffffffffffffff16815260200191505060405180910390f35b600033905090565b600360009054906101000a900460ff16610844576040517f08c379a000000000000000000000000000000000000000000000000000000000815260040180806020018281038252601f8152602001807f5265656e7472616e637947756172643a207265656e7472616e742063616c6c0081525060200191505060405180910390fd5b6000600360006101000a81548160ff021916908315150217905550600034905061086e82826112cb565b6000610879826112e8565b90506108908260065461130690919063ffffffff16565b6006819055506108a0838261138e565b8273ffffffffffffffffffffffffffffffffffffffff166108bf6107ba565b73ffffffffffffffffffffffffffffffffffffffff167f6faf93231a456e552dbc9961f58d9713ee4f2e69d15f1975b050ef0911053a7b8484604051808381526020018281526020019250505060405180910390a361091e838361139c565b6109266113a0565b6109308383611463565b50506001600360006101000a81548160ff02191690831515021790555050565b61096061095b6107ba565b610ccf565b6109b5576040517f08c379a00000000000000000000000000000000000000000000000000000000081526004018080602001828103825260408152602001806123f46040913960400191505060405180910390fd5b6109be81611467565b50565b60006009544211905090565b6109dd6109d86107ba565b610ccf565b610a32576040517f08c379a00000000000000000000000000000000000000000000000000000000081526004018080602001828103825260408152602001806123f46040913960400191505060405180910390fd5b610a3b816114c1565b50565b6000600554905090565b6000600754905090565b6000610a6882600261151b90919063ffffffff16565b9050919050565b6000600b54905090565b6000600654905090565b60006008544210158015610a9957506009544211155b905090565b6000600954905090565b600a60009054906101000a900460ff1615610b0e576040517f08c379a00000000000000000000000000000000000000000000000000000000081526004018080602001828103825260278152602001806124346027913960400191505060405180910390fd5b610b166109c1565b610b88576040517f08c379a00000000000000000000000000000000000000000000000000000000081526004018080602001828103825260208152602001807f46696e616c697a61626c6543726f776473616c653a206e6f7420636c6f73656481525060200191505060405180910390fd5b6001600a60006101000a81548160ff021916908315150217905550610bab6115f9565b7f9270cc390c096600a1c17c44345a1ba689fafd99d97487b10cfccf86cf73183660405160405180910390a1565b610be9610be46107ba565b61179c565b565b6000600754610bf8610a79565b1015905090565b6000600460009054906101000a900473ffffffffffffffffffffffffffffffffffffffff16905090565b610c39610c346107ba565b610ccf565b610c8e576040517f08c379a00000000000000000000000000000000000000000000000000000000081526004018080602001828103825260408152602001806123f46040913960400191505060405180910390fd5b610c97816117f6565b50565b6000600b54610ca7610a79565b1015905090565b6000600a60009054906101000a900460ff16905090565b6000600854905090565b6000610ce582600161151b90919063ffffffff16565b9050919050565b6000610eec610cf96112a1565b73ffffffffffffffffffffffffffffffffffffffff166370a08231600d60009054906101000a900473ffffffffffffffffffffffffffffffffffffffff166040518263ffffffff1660e01b8152600401808273ffffffffffffffffffffffffffffffffffffffff1673ffffffffffffffffffffffffffffffffffffffff16815260200191505060206040518083038186803b158015610d9757600080fd5b505afa158015610dab573d6000803e3d6000fd5b505050506040513d6020811015610dc157600080fd5b8101908080519060200190929190505050610dda6112a1565b73ffffffffffffffffffffffffffffffffffffffff1663dd62ed3e600d60009054906101000a900473ffffffffffffffffffffffffffffffffffffffff16306040518363ffffffff1660e01b8152600401808373ffffffffffffffffffffffffffffffffffffffff1673ffffffffffffffffffffffffffffffffffffffff1681526020018273ffffffffffffffffffffffffffffffffffffffff1673ffffffffffffffffffffffffffffffffffffffff1681526020019250505060206040518083038186803b158015610eac57600080fd5b505afa158015610ec0573d6000803e3d6000fd5b505050506040513d6020811015610ed657600080fd5b8101908080519060200190929190505050611850565b905090565b6000600d60009054906101000a900473ffffffffffffffffffffffffffffffffffffffff16905090565b610f23610cae565b610f78576040517f08c379a00000000000000000000000000000000000000000000000000000000081526004018080602001828103825260228152602001806124a66022913960400191505060405180910390fd5b610f80610c9a565b15610fd6576040517f08c379a000000000000000000000000000000000000000000000000000000000815260040180806020018281038252602181526020018061245b6021913960400191505060405180910390fd5b600c60009054906101000a900473ffffffffffffffffffffffffffffffffffffffff1673ffffffffffffffffffffffffffffffffffffffff166351cff8d9826040518263ffffffff1660e01b8152600401808273ffffffffffffffffffffffffffffffffffffffff1673ffffffffffffffffffffffffffffffffffffffff168152602001915050600060405180830381600087803b15801561107757600080fd5b505af115801561108b573d6000803e3d6000fd5b5050505050565b601260009054906101000a900460ff1681565b6110b56110b06107ba565b6114c1565b565b6000809054906101000a900473ffffffffffffffffffffffffffffffffffffffff1673ffffffffffffffffffffffffffffffffffffffff163373ffffffffffffffffffffffffffffffffffffffff161461115c576040517f08c379a000000000000000000000000000000000000000000000000000000000815260040180806020018281038252602281526020018061236e6022913960400191505060405180910390fd5b600e544211156111d4576040517f08c379a00000000000000000000000000000000000000000000000000000000081526004018080602001828103825260138152602001807f43726f776453616c652068617320456e6465640000000000000000000000000081525060200191505060405180910390fd5b600f5442101561124c576040517f08c379a00000000000000000000000000000000000000000000000000000000081526004018080602001828103825260198152602001807f43726f776453616c6520686173206e6f7420537461727465640000000000000081525060200191505060405180910390fd5b6001601260009054906101000a900460ff16600581111561126957fe5b01600581111561127557fe5b601260006101000a81548160ff0219169083600581111561129257fe5b021790555061129f611869565b565b6000600360019054906101000a900473ffffffffffffffffffffffffffffffffffffffff16905090565b6011544210156112da57600080fd5b6112e48282611a82565b5050565b60006112ff60055483611aee90919063ffffffff16565b9050919050565b600080828401905083811015611384576040517f08c379a000000000000000000000000000000000000000000000000000000000815260040180806020018281038252601b8152602001807f536166654d6174683a206164646974696f6e206f766572666c6f77000000000081525060200191505060405180910390fd5b8091505092915050565b6113988282611b74565b5050565b5050565b600c60009054906101000a900473ffffffffffffffffffffffffffffffffffffffff1673ffffffffffffffffffffffffffffffffffffffff1663f340fa01346113e76107ba565b6040518363ffffffff1660e01b8152600401808273ffffffffffffffffffffffffffffffffffffffff1673ffffffffffffffffffffffffffffffffffffffff1681526020019150506000604051808303818588803b15801561144857600080fd5b505af115801561145c573d6000803e3d6000fd5b5050505050565b5050565b61147b816002611bce90919063ffffffff16565b8073ffffffffffffffffffffffffffffffffffffffff167fee1504a83b6d4a361f4c1dc78ab59bfa30d6a3b6612c403e86bb01ef2984295f60405160405180910390a250565b6114d5816002611ca990919063ffffffff16565b8073ffffffffffffffffffffffffffffffffffffffff167f270d9b30cf5b0793bbfd54c9d5b94aeb49462b8148399000265144a8722da6b660405160405180910390a250565b60008073ffffffffffffffffffffffffffffffffffffffff168273ffffffffffffffffffffffffffffffffffffffff1614156115a2576040517f08c379a00000000000000000000000000000000000000000000000000000000081526004018080602001828103825260228152602001806123d26022913960400191505060405180910390fd5b8260000160008373ffffffffffffffffffffffffffffffffffffffff1673ffffffffffffffffffffffffffffffffffffffff16815260200190815260200160002060009054906101000a900460ff16905092915050565b611601610c9a565b1561170f57600c60009054906101000a900473ffffffffffffffffffffffffffffffffffffffff1673ffffffffffffffffffffffffffffffffffffffff166343d726d66040518163ffffffff1660e01b8152600401600060405180830381600087803b15801561167057600080fd5b505af1158015611684573d6000803e3d6000fd5b50505050600c60009054906101000a900473ffffffffffffffffffffffffffffffffffffffff1673ffffffffffffffffffffffffffffffffffffffff16639af6549a6040518163ffffffff1660e01b8152600401600060405180830381600087803b1580156116f257600080fd5b505af1158015611706573d6000803e3d6000fd5b50505050611792565b600c60009054906101000a900473ffffffffffffffffffffffffffffffffffffffff1673ffffffffffffffffffffffffffffffffffffffff16638c52dc416040518163ffffffff1660e01b8152600401600060405180830381600087803b15801561177957600080fd5b505af115801561178d573d6000803e3d6000fd5b505050505b61179a611d66565b565b6117b0816001611ca990919063ffffffff16565b8073ffffffffffffffffffffffffffffffffffffffff167f0a8eb35e5ca14b3d6f28e4abf2f128dbab231a58b56e89beb5d636115001e16560405160405180910390a250565b61180a816001611bce90919063ffffffff16565b8073ffffffffffffffffffffffffffffffffffffffff167f22380c05984257a1cb900161c713dd71d39e74820f1aea43bd3f1bdd2096129960405160405180910390a250565b600081831061185f5781611861565b825b905092915050565b6000809054906101000a900473ffffffffffffffffffffffffffffffffffffffff1673ffffffffffffffffffffffffffffffffffffffff163373ffffffffffffffffffffffffffffffffffffffff161461190e576040517f08c379a000000000000000000000000000000000000000000000000000000000815260040180806020018281038252602281526020018061236e6022913960400191505060405180910390fd5b600e54421115611986576040517f08c379a00000000000000000000000000000000000000000000000000000000081526004018080602001828103825260138152602001807f43726f776453616c652068617320456e6465640000000000000000000000000081525060200191505060405180910390fd5b6000600581111561199357fe5b601260009054906101000a900460ff1660058111156119ae57fe5b14156119c557600260105402601081905550611a80565b600160058111156119d257fe5b601260009054906101000a900460ff1660058111156119ed57fe5b1480611a1e575060026005811115611a0157fe5b601260009054906101000a900460ff166005811115611a1c57fe5b145b80611a4e575060036005811115611a3157fe5b601260009054906101000a900460ff166005811115611a4c57fe5b145b15611a6b57600260105481611a5f57fe5b04601081905550611a7f565b600460105481611a7757fe5b046010819055505b5b565b611a8b82610a52565b611ae0576040517f08c379a000000000000000000000000000000000000000000000000000000000815260040180806020018281038252604181526020018061232d6041913960600191505060405180910390fd5b611aea8282611d68565b5050565b600080831415611b015760009050611b6e565b6000828402905082848281611b1257fe5b0414611b69576040517f08c379a00000000000000000000000000000000000000000000000000000000081526004018080602001828103825260218152602001806123b16021913960400191505060405180910390fd5b809150505b92915050565b611bca600d60009054906101000a900473ffffffffffffffffffffffffffffffffffffffff168383611ba46112a1565b73ffffffffffffffffffffffffffffffffffffffff16611df0909392919063ffffffff16565b5050565b611bd8828261151b565b15611c4b576040517f08c379a000000000000000000000000000000000000000000000000000000000815260040180806020018281038252601f8152602001807f526f6c65733a206163636f756e7420616c72656164792068617320726f6c650081525060200191505060405180910390fd5b60018260000160008373ffffffffffffffffffffffffffffffffffffffff1673ffffffffffffffffffffffffffffffffffffffff16815260200190815260200160002060006101000a81548160ff0219169083151502179055505050565b611cb3828261151b565b611d08576040517f08c379a00000000000000000000000000000000000000000000000000000000081526004018080602001828103825260218152602001806123906021913960400191505060405180910390fd5b60008260000160008373ffffffffffffffffffffffffffffffffffffffff1673ffffffffffffffffffffffffffffffffffffffff16815260200190815260200160002060006101000a81548160ff0219169083151502179055505050565b565b611d70610a83565b611de2576040517f08c379a00000000000000000000000000000000000000000000000000000000081526004018080602001828103825260188152602001807f54696d656443726f776473616c653a206e6f74206f70656e000000000000000081525060200191505060405180910390fd5b611dec8282611ef6565b5050565b611ef0848573ffffffffffffffffffffffffffffffffffffffff166323b872dd905060e01b858585604051602401808473ffffffffffffffffffffffffffffffffffffffff1673ffffffffffffffffffffffffffffffffffffffff1681526020018373ffffffffffffffffffffffffffffffffffffffff1673ffffffffffffffffffffffffffffffffffffffff1681526020018281526020019350505050604051602081830303815290604052907bffffffffffffffffffffffffffffffffffffffffffffffffffffffff19166020820180517bffffffffffffffffffffffffffffffffffffffffffffffffffffffff8381831617835250505050611f95565b50505050565b611f0082826121e0565b600754611f1d82611f0f610a79565b61130690919063ffffffff16565b1115611f91576040517f08c379a000000000000000000000000000000000000000000000000000000000815260040180806020018281038252601d8152602001807f43617070656443726f776473616c653a2063617020657863656564656400000081525060200191505060405180910390fd5b5050565b611fb48273ffffffffffffffffffffffffffffffffffffffff166122e1565b612026576040517f08c379a000000000000000000000000000000000000000000000000000000000815260040180806020018281038252601f8152602001807f5361666545524332303a2063616c6c20746f206e6f6e2d636f6e74726163740081525060200191505060405180910390fd5b600060608373ffffffffffffffffffffffffffffffffffffffff16836040518082805190602001908083835b602083106120755780518252602082019150602081019050602083039250612052565b6001836020036101000a0380198251168184511680821785525050505050509050019150506000604051808303816000865af19150503d80600081146120d7576040519150601f19603f3d011682016040523d82523d6000602084013e6120dc565b606091505b509150915081612154576040517f08c379a00000000000000000000000000000000000000000000000000000000081526004018080602001828103825260208152602001807f5361666545524332303a206c6f772d6c6576656c2063616c6c206661696c656481525060200191505060405180910390fd5b6000815111156121da5780806020019051602081101561217357600080fd5b81019080805190602001909291905050506121d9576040517f08c379a000000000000000000000000000000000000000000000000000000000815260040180806020018281038252602a8152602001806124c8602a913960400191505060405180910390fd5b5b50505050565b600073ffffffffffffffffffffffffffffffffffffffff168273ffffffffffffffffffffffffffffffffffffffff161415612266576040517f08c379a000000000000000000000000000000000000000000000000000000000815260040180806020018281038252602a81526020018061247c602a913960400191505060405180910390fd5b60008114156122dd576040517f08c379a00000000000000000000000000000000000000000000000000000000081526004018080602001828103825260198152602001807f43726f776473616c653a20776569416d6f756e7420697320300000000000000081525060200191505060405180910390fd5b5050565b60008060007fc5d2460186f7233c927e7db2dcc703c0e500b653ca82273b7bfad8045d85a47060001b9050833f915080821415801561232357506000801b8214155b9250505091905056fe57686974656c69737443726f776473616c653a2062656e656669636961727920646f65736e27742068617665207468652057686974656c697374656420726f6c654f6e6c79206f776e65722063616e2063616c6c20746869732066756e6374696f6e2e526f6c65733a206163636f756e7420646f6573206e6f74206861766520726f6c65536166654d6174683a206d756c7469706c69636174696f6e206f766572666c6f77526f6c65733a206163636f756e7420697320746865207a65726f206164647265737357686974656c69737441646d696e526f6c653a2063616c6c657220646f6573206e6f742068617665207468652057686974656c69737441646d696e20726f6c6546696e616c697a61626c6543726f776473616c653a20616c72656164792066696e616c697a6564526566756e6461626c6543726f776473616c653a20676f616c207265616368656443726f776473616c653a2062656e656669636961727920697320746865207a65726f2061646472657373526566756e6461626c6543726f776473616c653a206e6f742066696e616c697a65645361666545524332303a204552433230206f7065726174696f6e20646964206e6f742073756363656564a265627a7a723158200d22b97302a1edd09f0c07b298ea72fdcc8384ff8c077d56f24c32400777d94764736f6c63430005110032608060405234801561001057600080fd5b506040516116323803806116328339818101604052602081101561003357600080fd5b810190808051906020019092919050505060006100546101eb60201b60201c565b9050806000806101000a81548173ffffffffffffffffffffffffffffffffffffffff021916908373ffffffffffffffffffffffffffffffffffffffff1602179055507f4101e71e974f68df5e9730cc223280b41654676bbb052cdcc735c3337e64d2d981604051808273ffffffffffffffffffffffffffffffffffffffff1673ffffffffffffffffffffffffffffffffffffffff16815260200191505060405180910390a150600073ffffffffffffffffffffffffffffffffffffffff168173ffffffffffffffffffffffffffffffffffffffff161415610180576040517f08c379a000000000000000000000000000000000000000000000000000000000815260040180806020018281038252602d815260200180611605602d913960400191505060405180910390fd5b80600260016101000a81548173ffffffffffffffffffffffffffffffffffffffff021916908373ffffffffffffffffffffffffffffffffffffffff1602179055506000600260006101000a81548160ff021916908360028111156101e057fe5b0217905550506101f3565b600033905090565b611403806102026000396000f3fe6080604052600436106100a75760003560e01c80638c52dc41116100645780638c52dc41146102765780639af6549a1461028d578063c19d93fb146102a4578063c6dbdf61146102dd578063e3a9db1a14610334578063f340fa0114610399576100a7565b80632348238c146100ac57806338af3eed146100fd57806343d726d61461015457806351cff8d91461016b5780636809691a146101bc578063685ca1941461020d575b600080fd5b3480156100b857600080fd5b506100fb600480360360208110156100cf57600080fd5b81019080803573ffffffffffffffffffffffffffffffffffffffff1690602001909291905050506103dd565b005b34801561010957600080fd5b506101126105b5565b604051808273ffffffffffffffffffffffffffffffffffffffff1673ffffffffffffffffffffffffffffffffffffffff16815260200191505060405180910390f35b34801561016057600080fd5b506101696105df565b005b34801561017757600080fd5b506101ba6004803603602081101561018e57600080fd5b81019080803573ffffffffffffffffffffffffffffffffffffffff16906020019092919050505061075a565b005b3480156101c857600080fd5b5061020b600480360360208110156101df57600080fd5b81019080803573ffffffffffffffffffffffffffffffffffffffff1690602001909291905050506107c4565b005b34801561021957600080fd5b5061025c6004803603602081101561023057600080fd5b81019080803573ffffffffffffffffffffffffffffffffffffffff169060200190929190505050610974565b604051808215151515815260200191505060405180910390f35b34801561028257600080fd5b5061028b6109a6565b005b34801561029957600080fd5b506102a2610b22565b005b3480156102b057600080fd5b506102b9610c0a565b604051808260028111156102c957fe5b60ff16815260200191505060405180910390f35b3480156102e957600080fd5b506102f2610c21565b604051808273ffffffffffffffffffffffffffffffffffffffff1673ffffffffffffffffffffffffffffffffffffffff16815260200191505060405180910390f35b34801561034057600080fd5b506103836004803603602081101561035757600080fd5b81019080803573ffffffffffffffffffffffffffffffffffffffff169060200190929190505050610c4a565b6040518082815260200191505060405180910390f35b6103db600480360360208110156103af57600080fd5b81019080803573ffffffffffffffffffffffffffffffffffffffff169060200190929190505050610c93565b005b6000809054906101000a900473ffffffffffffffffffffffffffffffffffffffff1673ffffffffffffffffffffffffffffffffffffffff1661041d610d1d565b73ffffffffffffffffffffffffffffffffffffffff1614610489576040517f08c379a000000000000000000000000000000000000000000000000000000000815260040180806020018281038252602c815260200180611371602c913960400191505060405180910390fd5b600073ffffffffffffffffffffffffffffffffffffffff168173ffffffffffffffffffffffffffffffffffffffff16141561050f576040517f08c379a000000000000000000000000000000000000000000000000000000000815260040180806020018281038252602a815260200180611347602a913960400191505060405180910390fd5b806000806101000a81548173ffffffffffffffffffffffffffffffffffffffff021916908373ffffffffffffffffffffffffffffffffffffffff1602179055507f4101e71e974f68df5e9730cc223280b41654676bbb052cdcc735c3337e64d2d981604051808273ffffffffffffffffffffffffffffffffffffffff1673ffffffffffffffffffffffffffffffffffffffff16815260200191505060405180910390a150565b6000600260019054906101000a900473ffffffffffffffffffffffffffffffffffffffff16905090565b6000809054906101000a900473ffffffffffffffffffffffffffffffffffffffff1673ffffffffffffffffffffffffffffffffffffffff1661061f610d1d565b73ffffffffffffffffffffffffffffffffffffffff161461068b576040517f08c379a000000000000000000000000000000000000000000000000000000000815260040180806020018281038252602c815260200180611371602c913960400191505060405180910390fd5b6000600281111561069857fe5b600260009054906101000a900460ff1660028111156106b357fe5b14610709576040517f08c379a000000000000000000000000000000000000000000000000000000000815260040180806020018281038252602981526020018061131e6029913960400191505060405180910390fd5b60028060006101000a81548160ff0219169083600281111561072757fe5b02179055507f088672c3a6e342f7cd94a65ba63b79df24a8973927b4d05d803c44bbf787d12f60405160405180910390a1565b61076381610974565b6107b8576040517f08c379a00000000000000000000000000000000000000000000000000000000081526004018080602001828103825260338152602001806112eb6033913960400191505060405180910390fd5b6107c181610d25565b50565b6000809054906101000a900473ffffffffffffffffffffffffffffffffffffffff1673ffffffffffffffffffffffffffffffffffffffff16610804610d1d565b73ffffffffffffffffffffffffffffffffffffffff1614610870576040517f08c379a000000000000000000000000000000000000000000000000000000000815260040180806020018281038252602c815260200180611371602c913960400191505060405180910390fd5b6000600160008373ffffffffffffffffffffffffffffffffffffffff1673ffffffffffffffffffffffffffffffffffffffff1681526020019081526020016000205490506000600160008473ffffffffffffffffffffffffffffffffffffffff1673ffffffffffffffffffffffffffffffffffffffff16815260200190815260200160002081905550610922818373ffffffffffffffffffffffffffffffffffffffff16610ef390919063ffffffff16565b8173ffffffffffffffffffffffffffffffffffffffff167f7084f5476618d8e60b11ef0d7d3f06914655adb8793e28ff7f018d4c76d505d5826040518082815260200191505060405180910390a25050565b60006001600281111561098357fe5b600260009054906101000a900460ff16600281111561099e57fe5b149050919050565b6000809054906101000a900473ffffffffffffffffffffffffffffffffffffffff1673ffffffffffffffffffffffffffffffffffffffff166109e6610d1d565b73ffffffffffffffffffffffffffffffffffffffff1614610a52576040517f08c379a000000000000000000000000000000000000000000000000000000000815260040180806020018281038252602c815260200180611371602c913960400191505060405180910390fd5b60006002811115610a5f57fe5b600260009054906101000a900460ff166002811115610a7a57fe5b14610ad0576040517f08c379a000000000000000000000000000000000000000000000000000000000815260040180806020018281038252603281526020018061139d6032913960400191505060405180910390fd5b6001600260006101000a81548160ff02191690836002811115610aef57fe5b02179055507f599d8e5a83cffb867d051598c4d70e805d59802d8081c1c7d6dffc5b6aca2b8960405160405180910390a1565b600280811115610b2e57fe5b600260009054906101000a900460ff166002811115610b4957fe5b14610b9f576040517f08c379a000000000000000000000000000000000000000000000000000000000815260040180806020018281038252603881526020018061124e6038913960400191505060405180910390fd5b600260019054906101000a900473ffffffffffffffffffffffffffffffffffffffff1673ffffffffffffffffffffffffffffffffffffffff166108fc479081150290604051600060405180830381858888f19350505050158015610c07573d6000803e3d6000fd5b50565b6000600260009054906101000a900460ff16905090565b60008060009054906101000a900473ffffffffffffffffffffffffffffffffffffffff16905090565b6000600160008373ffffffffffffffffffffffffffffffffffffffff1673ffffffffffffffffffffffffffffffffffffffff168152602001908152602001600020549050919050565b60006002811115610ca057fe5b600260009054906101000a900460ff166002811115610cbb57fe5b14610d11576040517f08c379a000000000000000000000000000000000000000000000000000000000815260040180806020018281038252602b8152602001806112c0602b913960400191505060405180910390fd5b610d1a8161102d565b50565b600033905090565b6000809054906101000a900473ffffffffffffffffffffffffffffffffffffffff1673ffffffffffffffffffffffffffffffffffffffff16610d65610d1d565b73ffffffffffffffffffffffffffffffffffffffff1614610dd1576040517f08c379a000000000000000000000000000000000000000000000000000000000815260040180806020018281038252602c815260200180611371602c913960400191505060405180910390fd5b6000600160008373ffffffffffffffffffffffffffffffffffffffff1673ffffffffffffffffffffffffffffffffffffffff1681526020019081526020016000205490506000600160008473ffffffffffffffffffffffffffffffffffffffff1673ffffffffffffffffffffffffffffffffffffffff168152602001908152602001600020819055508173ffffffffffffffffffffffffffffffffffffffff166108fc829081150290604051600060405180830381858888f19350505050158015610ea0573d6000803e3d6000fd5b508173ffffffffffffffffffffffffffffffffffffffff167f7084f5476618d8e60b11ef0d7d3f06914655adb8793e28ff7f018d4c76d505d5826040518082815260200191505060405180910390a25050565b80471015610f69576040517f08c379a000000000000000000000000000000000000000000000000000000000815260040180806020018281038252601d8152602001807f416464726573733a20696e73756666696369656e742062616c616e636500000081525060200191505060405180910390fd5b60008273ffffffffffffffffffffffffffffffffffffffff168260405180600001905060006040518083038185875af1925050503d8060008114610fc9576040519150601f19603f3d011682016040523d82523d6000602084013e610fce565b606091505b5050905080611028576040517f08c379a000000000000000000000000000000000000000000000000000000000815260040180806020018281038252603a815260200180611286603a913960400191505060405180910390fd5b505050565b6000809054906101000a900473ffffffffffffffffffffffffffffffffffffffff1673ffffffffffffffffffffffffffffffffffffffff1661106d610d1d565b73ffffffffffffffffffffffffffffffffffffffff16146110d9576040517f08c379a000000000000000000000000000000000000000000000000000000000815260040180806020018281038252602c815260200180611371602c913960400191505060405180910390fd5b600034905061113081600160008573ffffffffffffffffffffffffffffffffffffffff1673ffffffffffffffffffffffffffffffffffffffff168152602001908152602001600020546111c590919063ffffffff16565b600160008473ffffffffffffffffffffffffffffffffffffffff1673ffffffffffffffffffffffffffffffffffffffff168152602001908152602001600020819055508173ffffffffffffffffffffffffffffffffffffffff167f2da466a7b24304f47e87fa2e1e5a81b9831ce54fec19055ce277ca2f39ba42c4826040518082815260200191505060405180910390a25050565b600080828401905083811015611243576040517f08c379a000000000000000000000000000000000000000000000000000000000815260040180806020018281038252601b8152602001807f536166654d6174683a206164646974696f6e206f766572666c6f77000000000081525060200191505060405180910390fd5b809150509291505056fe526566756e64457363726f773a2062656e65666963696172792063616e206f6e6c79207769746864726177207768696c6520636c6f736564416464726573733a20756e61626c6520746f2073656e642076616c75652c20726563697069656e74206d61792068617665207265766572746564526566756e64457363726f773a2063616e206f6e6c79206465706f736974207768696c6520616374697665436f6e646974696f6e616c457363726f773a207061796565206973206e6f7420616c6c6f77656420746f207769746864726177526566756e64457363726f773a2063616e206f6e6c7920636c6f7365207768696c65206163746976655365636f6e646172793a206e6577207072696d61727920697320746865207a65726f20616464726573735365636f6e646172793a2063616c6c6572206973206e6f7420746865207072696d617279206163636f756e74526566756e64457363726f773a2063616e206f6e6c7920656e61626c6520726566756e6473207768696c6520616374697665a265627a7a723158202fbc2f694c26a4b10c81651a67b91f433236af10e9a32e3b4534b41ffb5148ae64736f6c63430005110032526566756e64457363726f773a2062656e656669636961727920697320746865207a65726f206164647265737354696d656443726f776473616c653a206f70656e696e672074696d65206973206265666f72652063757272656e742074696d654f6e6c79206f776e65722063616e2063616c6c20746869732066756e6374696f6e2e416c6c6f77616e636543726f776473616c653a20746f6b656e2077616c6c657420697320746865207a65726f206164647265737354696d656443726f776473616c653a206f70656e696e672074696d65206973206e6f74206265666f726520636c6f73696e672074696d6543726f776473616c653a20746f6b656e20697320746865207a65726f2061646472657373526f6c65733a206163636f756e7420697320746865207a65726f206164647265737343726f776473616c653a2077616c6c657420697320746865207a65726f2061646472657373",
  "source": "pragma solidity >=0.5.0;\n\n// import \"./Token_Generation.sol\";\nimport \"@openzeppelin/contracts/token/ERC20/ERC20.sol\";\nimport \"@openzeppelin/contracts/token/ERC20/ERC20Pausable.sol\";\nimport \"@openzeppelin/contracts/token/ERC20/ERC20Mintable.sol\";\nimport \"@openzeppelin/contracts/token/ERC20/TokenTimelock.sol\";\nimport \"@openzeppelin/contracts/crowdsale/Crowdsale.sol\";\nimport \"@openzeppelin/contracts/ownership/Ownable.sol\";\nimport \"@openzeppelin/contracts/crowdsale/emission/MintedCrowdsale.sol\";\nimport \"@openzeppelin/contracts/crowdsale/emission/AllowanceCrowdsale.sol\";\nimport \"@openzeppelin/contracts/crowdsale/validation/CappedCrowdsale.sol\";\nimport \"@openzeppelin/contracts/crowdsale/validation/TimedCrowdsale.sol\";\nimport \"@openzeppelin/contracts/crowdsale/validation/WhitelistCrowdsale.sol\";\nimport \"@openzeppelin/contracts/crowdsale/distribution/RefundableCrowdsale.sol\";\n\ncontract owned {\n    constructor() public { owner = msg.sender; }\n    address payable owner;\n\n    // This contract only defines a modifier but does not use\n    // it: it will be used in derived contracts.\n    // The function body is inserted where the special symbol\n    // `_;` in the definition of a modifier appears.\n    // This means that if the owner calls this function, the\n    // function is executed and otherwise, an exception is\n    // thrown.\n    modifier onlyOwner {\n        require(\n            msg.sender == owner,\n            \"Only owner can call this function.\"\n        );\n        _;\n    }\n}\n\ncontract AINCTokenCrowdsale is owned, Crowdsale, MintedCrowdsale, CappedCrowdsale, TimedCrowdsale, WhitelistCrowdsale, RefundableCrowdsale, AllowanceCrowdsale {\n\n    //mapping(address => uint) public contributions;\n    //uint _softcap;\n    //uint _hardcap;\n    uint _endTime;\n    uint _startTime;\n    uint ourRate;\n    uint _lock = now+30*1 days;\n    // bool mint = false;\n    //address owner;\n    // IERC20 _token;\n\n    // uint ourGoal;\n\n    enum CrowdsaleStage { PreICO, ICO, Round1, Round2, Round3, SaleEnd }\n    CrowdsaleStage public stage = CrowdsaleStage.PreICO;\n\n    //event SaleEnded(address a);\n\n    constructor(uint256 rate, address payable wallet, IERC20 token, address tokenOwner, uint softcap,  uint hardcap, uint startTime, uint endTime)\n\n    Crowdsale(rate, wallet, token)\n    // TokenTimelock(token, others, now + 52*1 weeks)\n    AllowanceCrowdsale(tokenOwner)\n    CappedCrowdsale(hardcap)\n    RefundableCrowdsale(softcap)\n    TimedCrowdsale(startTime, endTime) public{\n\n        //address deployed_address = MyToken.getAddress();\n        //require(address(msg.sender) == address(deployed_address), \"Owner of Token can create ICO\");\n\n        require(rate > 0);\n        require(wallet != address(0));\n        require(address(token) != address(0));\n        //owner = msg.sender;\n        // _token = token;\n        ourRate = rate;\n        //_softcap = softcap;\n        //_hardcap = hardcap;\n        _startTime = startTime;\n        _endTime = endTime;\n        applyBonus();\n    }\n\n    // modifier isOwner(){\n\n    //     require(msg.sender == owner, \"Only owner of the contract can call this\");\n    //     _;\n\n    // }\n\n    modifier beforeEnd(){\n\n        require(now <= _endTime, \"CrowdSale has Ended\");\n        _;\n\n    }\n\n    modifier afterStart(){\n\n        require(now >= _startTime, \"CrowdSale has not Started\");\n        _;\n\n    }\n\n\n    function _preValidatePurchase(address _beneficiary, uint256 _weiAmount) internal view{\n\n        require(block.timestamp >= _lock);\n        super._preValidatePurchase(_beneficiary, _weiAmount);\n\n    }\n\n\n    function changeRound() public onlyOwner() beforeEnd() afterStart(){\n\n        stage = CrowdsaleStage(int(stage) + 1);\n        applyBonus();\n\n    }\n\n\n    function applyBonus() internal onlyOwner() beforeEnd(){\n\n\n        if(stage == CrowdsaleStage.PreICO){\n            ourRate = ourRate*2;\n\n        }\n        else if (stage == CrowdsaleStage.ICO || stage == CrowdsaleStage.Round1 || stage == CrowdsaleStage.Round2) {\n            ourRate = ourRate/2;\n        }\n\n        else{\n            ourRate = ourRate/4;\n        }\n\n    }\n\n\n}\n\n\n\n\n\n\n\n\n\n\n\n// contract MyICO is Ownable, Crowdsale, CappedCrowdsale, TimedCrowdsale, RefundablePostDeliveryCrowdsale, AllowanceCrowdsale{\n\n//     //mapping(address => uint) public contributions;\n//     //uint _softcap;\n//     //uint _hardcap;\n//     uint _endTime;\n//     uint _startTime;\n//     uint ourRate;\n//     uint _lock = now+30*1 days;\n//     // bool mint = false;\n//     //address owner;\n//     // IERC20 _token;\n\n//     // uint ourGoal;\n\n//     enum CrowdsaleStage { PreICO, ICO, Round1, Round2, Round3, SaleEnd }\n//     CrowdsaleStage public stage = CrowdsaleStage.PreICO;\n\n//     //event SaleEnded(address a);\n\n//     constructor(uint rate, address payable wallet, IERC20 token, address tokenOwner, uint softcap,  uint hardcap, uint startTime, uint endTime)\n\n//     Crowdsale(rate, wallet, token)\n//     // TokenTimelock(token, others, now + 52*1 weeks)\n//     AllowanceCrowdsale(tokenOwner)\n//     CappedCrowdsale(hardcap)\n//     RefundableCrowdsale(softcap)\n//     TimedCrowdsale(startTime, endTime) public{\n\n//         //address deployed_address = AINCToken.getAddress();\n//         //require(address(msg.sender) == address(deployed_address), \"Owner of Token can create ICO\");\n\n//         require(rate > 0);\n//         require(wallet != address(0));\n//         require(address(token) != address(0));\n//         //owner = msg.sender;\n//         // _token = token;\n//         ourRate = rate;\n//         //_softcap = softcap;\n//         //_hardcap = hardcap;\n//         _startTime = startTime;\n//         _endTime = endTime;\n//         applyBonus();\n//     }\n\n\n//     // modifier isOwner(){\n\n//     //     require(msg.sender == owner, \"Only owner of the contract can call this\");\n//     //     _;\n\n//     // }\n\n//     modifier beforeEnd(){\n\n//         require(now <= _endTime, \"CrowdSale has Ended\");\n//         _;\n\n//     }\n\n//     modifier afterStart(){\n\n//         require(now >= _startTime, \"CrowdSale has not Started\");\n//         _;\n\n//     }\n\n\n//     function _preValidatePurchase(address _beneficiary, uint _weiAmount) internal {\n\n//         require(block.timestamp >= _lock);\n//         super._preValidatePurchase(_beneficiary, _weiAmount);\n\n//     }\n\n\n//     function changeRound() public onlyOwner() beforeEnd() afterStart(){\n\n//         stage = CrowdsaleStage(int(stage) + 1);\n//         applyBonus();\n\n//     }\n\n\n//     function applyBonus() internal onlyOwner() beforeEnd(){\n\n\n//         if(stage == CrowdsaleStage.PreICO){\n//             ourRate = ourRate*2;\n\n//         }\n//         else if (stage == CrowdsaleStage.ICO || stage == CrowdsaleStage.Round1 || stage == CrowdsaleStage.Round2) {\n//             ourRate = ourRate/2;\n//         }\n\n//         else{\n//             ourRate = ourRate/4;\n//         }\n\n//     }\n\n\n// }\n",
  "sourcePath": "/home/dishant/AMAG-ICO/contracts/AINCTokenCrowdsale.sol",
  "compiler": {
    "name": "solc",
    "version": "0.5.17+commit.d19bba13.Emscripten.clang"
  },
  "schemaVersion": "3.2.3",
  "updatedAt": "2020-12-15T06:41:48.417Z",
  "devdoc": {
    "methods": {
      "buyTokens(address)": {
        "details": "low level token purchase ***DO NOT OVERRIDE*** This function has a non-reentrancy guard, so it shouldn't be called by another `nonReentrant` function.",
        "params": {
          "beneficiary": "Recipient of the token purchase"
        }
      },
      "cap()": {
        "return": "the cap of the crowdsale."
      },
      "capReached()": {
        "details": "Checks whether the cap has been reached.",
        "return": "Whether the cap was reached"
      },
      "claimRefund(address)": {
        "details": "Investors can claim refunds here if crowdsale is unsuccessful.",
        "params": {
          "refundee": "Whose refund will be claimed."
        }
      },
      "closingTime()": {
        "return": "the crowdsale closing time."
      },
      "finalize()": {
        "details": "Must be called after crowdsale ends, to do some extra finalization work. Calls the contract's finalization function."
      },
      "finalized()": {
        "return": "true if the crowdsale is finalized, false otherwise."
      },
      "goal()": {
        "return": "minimum amount of funds to be raised in wei."
      },
      "goalReached()": {
        "details": "Checks whether funding goal was reached.",
        "return": "Whether funding goal was reached"
      },
      "hasClosed()": {
        "details": "Checks whether the period in which the crowdsale is open has already elapsed.",
        "return": "Whether crowdsale period has elapsed"
      },
      "isOpen()": {
        "return": "true if the crowdsale is open, false otherwise."
      },
      "openingTime()": {
        "return": "the crowdsale opening time."
      },
      "rate()": {
        "return": "the number of token units a buyer gets per wei."
      },
      "remainingTokens()": {
        "details": "Checks the amount of tokens left in the allowance.",
        "return": "Amount of tokens left in the allowance"
      },
      "token()": {
        "return": "the token being sold."
      },
      "tokenWallet()": {
        "return": "the address of the wallet that will hold the tokens."
      },
      "wallet()": {
        "return": "the address where funds are collected."
      },
      "weiRaised()": {
        "return": "the amount of wei raised."
      }
    }
  },
  "userdoc": {
    "methods": {}
  }
}