{
  "contractName": "MyICO",
  "abi": [
    {
      "inputs": [
        {
          "internalType": "uint256",
          "name": "rate",
          "type": "uint256"
        },
        {
          "internalType": "address payable",
          "name": "wallet",
          "type": "address"
        },
        {
          "internalType": "contract IERC20",
          "name": "token",
          "type": "address"
        },
        {
          "internalType": "address",
          "name": "tokenOwner",
          "type": "address"
        },
        {
          "internalType": "uint256",
          "name": "softcap",
          "type": "uint256"
        },
        {
          "internalType": "uint256",
          "name": "hardcap",
          "type": "uint256"
        },
        {
          "internalType": "uint256",
          "name": "startTime",
          "type": "uint256"
        },
        {
          "internalType": "uint256",
          "name": "endTime",
          "type": "uint256"
        }
      ],
      "payable": false,
      "stateMutability": "nonpayable",
      "type": "constructor"
    },
    {
      "anonymous": false,
      "inputs": [],
      "name": "CrowdsaleFinalized",
      "type": "event"
    },
    {
      "anonymous": false,
      "inputs": [
        {
          "indexed": true,
          "internalType": "address",
          "name": "previousOwner",
          "type": "address"
        },
        {
          "indexed": true,
          "internalType": "address",
          "name": "newOwner",
          "type": "address"
        }
      ],
      "name": "OwnershipTransferred",
      "type": "event"
    },
    {
      "anonymous": false,
      "inputs": [
        {
          "indexed": false,
          "internalType": "uint256",
          "name": "prevClosingTime",
          "type": "uint256"
        },
        {
          "indexed": false,
          "internalType": "uint256",
          "name": "newClosingTime",
          "type": "uint256"
        }
      ],
      "name": "TimedCrowdsaleExtended",
      "type": "event"
    },
    {
      "anonymous": false,
      "inputs": [
        {
          "indexed": true,
          "internalType": "address",
          "name": "purchaser",
          "type": "address"
        },
        {
          "indexed": true,
          "internalType": "address",
          "name": "beneficiary",
          "type": "address"
        },
        {
          "indexed": false,
          "internalType": "uint256",
          "name": "value",
          "type": "uint256"
        },
        {
          "indexed": false,
          "internalType": "uint256",
          "name": "amount",
          "type": "uint256"
        }
      ],
      "name": "TokensPurchased",
      "type": "event"
    },
    {
      "payable": true,
      "stateMutability": "payable",
      "type": "fallback"
    },
    {
      "constant": true,
      "inputs": [
        {
          "internalType": "address",
          "name": "account",
          "type": "address"
        }
      ],
      "name": "balanceOf",
      "outputs": [
        {
          "internalType": "uint256",
          "name": "",
          "type": "uint256"
        }
      ],
      "payable": false,
      "stateMutability": "view",
      "type": "function"
    },
    {
      "constant": false,
      "inputs": [
        {
          "internalType": "address",
          "name": "beneficiary",
          "type": "address"
        }
      ],
      "name": "buyTokens",
      "outputs": [],
      "payable": true,
      "stateMutability": "payable",
      "type": "function"
    },
    {
      "constant": true,
      "inputs": [],
      "name": "cap",
      "outputs": [
        {
          "internalType": "uint256",
          "name": "",
          "type": "uint256"
        }
      ],
      "payable": false,
      "stateMutability": "view",
      "type": "function"
    },
    {
      "constant": true,
      "inputs": [],
      "name": "capReached",
      "outputs": [
        {
          "internalType": "bool",
          "name": "",
          "type": "bool"
        }
      ],
      "payable": false,
      "stateMutability": "view",
      "type": "function"
    },
    {
      "constant": false,
      "inputs": [
        {
          "internalType": "address payable",
          "name": "refundee",
          "type": "address"
        }
      ],
      "name": "claimRefund",
      "outputs": [],
      "payable": false,
      "stateMutability": "nonpayable",
      "type": "function"
    },
    {
      "constant": true,
      "inputs": [],
      "name": "closingTime",
      "outputs": [
        {
          "internalType": "uint256",
          "name": "",
          "type": "uint256"
        }
      ],
      "payable": false,
      "stateMutability": "view",
      "type": "function"
    },
    {
      "constant": false,
      "inputs": [],
      "name": "finalize",
      "outputs": [],
      "payable": false,
      "stateMutability": "nonpayable",
      "type": "function"
    },
    {
      "constant": true,
      "inputs": [],
      "name": "finalized",
      "outputs": [
        {
          "internalType": "bool",
          "name": "",
          "type": "bool"
        }
      ],
      "payable": false,
      "stateMutability": "view",
      "type": "function"
    },
    {
      "constant": true,
      "inputs": [],
      "name": "goal",
      "outputs": [
        {
          "internalType": "uint256",
          "name": "",
          "type": "uint256"
        }
      ],
      "payable": false,
      "stateMutability": "view",
      "type": "function"
    },
    {
      "constant": true,
      "inputs": [],
      "name": "goalReached",
      "outputs": [
        {
          "internalType": "bool",
          "name": "",
          "type": "bool"
        }
      ],
      "payable": false,
      "stateMutability": "view",
      "type": "function"
    },
    {
      "constant": true,
      "inputs": [],
      "name": "hasClosed",
      "outputs": [
        {
          "internalType": "bool",
          "name": "",
          "type": "bool"
        }
      ],
      "payable": false,
      "stateMutability": "view",
      "type": "function"
    },
    {
      "constant": true,
      "inputs": [],
      "name": "isOpen",
      "outputs": [
        {
          "internalType": "bool",
          "name": "",
          "type": "bool"
        }
      ],
      "payable": false,
      "stateMutability": "view",
      "type": "function"
    },
    {
      "constant": true,
      "inputs": [],
      "name": "isOwner",
      "outputs": [
        {
          "internalType": "bool",
          "name": "",
          "type": "bool"
        }
      ],
      "payable": false,
      "stateMutability": "view",
      "type": "function"
    },
    {
      "constant": true,
      "inputs": [],
      "name": "openingTime",
      "outputs": [
        {
          "internalType": "uint256",
          "name": "",
          "type": "uint256"
        }
      ],
      "payable": false,
      "stateMutability": "view",
      "type": "function"
    },
    {
      "constant": true,
      "inputs": [],
      "name": "owner",
      "outputs": [
        {
          "internalType": "address",
          "name": "",
          "type": "address"
        }
      ],
      "payable": false,
      "stateMutability": "view",
      "type": "function"
    },
    {
      "constant": true,
      "inputs": [],
      "name": "rate",
      "outputs": [
        {
          "internalType": "uint256",
          "name": "",
          "type": "uint256"
        }
      ],
      "payable": false,
      "stateMutability": "view",
      "type": "function"
    },
    {
      "constant": true,
      "inputs": [],
      "name": "remainingTokens",
      "outputs": [
        {
          "internalType": "uint256",
          "name": "",
          "type": "uint256"
        }
      ],
      "payable": false,
      "stateMutability": "view",
      "type": "function"
    },
    {
      "constant": false,
      "inputs": [],
      "name": "renounceOwnership",
      "outputs": [],
      "payable": false,
      "stateMutability": "nonpayable",
      "type": "function"
    },
    {
      "constant": true,
      "inputs": [],
      "name": "stage",
      "outputs": [
        {
          "internalType": "enum MyICO.CrowdsaleStage",
          "name": "",
          "type": "uint8"
        }
      ],
      "payable": false,
      "stateMutability": "view",
      "type": "function"
    },
    {
      "constant": true,
      "inputs": [],
      "name": "token",
      "outputs": [
        {
          "internalType": "contract IERC20",
          "name": "",
          "type": "address"
        }
      ],
      "payable": false,
      "stateMutability": "view",
      "type": "function"
    },
    {
      "constant": true,
      "inputs": [],
      "name": "tokenWallet",
      "outputs": [
        {
          "internalType": "address",
          "name": "",
          "type": "address"
        }
      ],
      "payable": false,
      "stateMutability": "view",
      "type": "function"
    },
    {
      "constant": false,
      "inputs": [
        {
          "internalType": "address",
          "name": "newOwner",
          "type": "address"
        }
      ],
      "name": "transferOwnership",
      "outputs": [],
      "payable": false,
      "stateMutability": "nonpayable",
      "type": "function"
    },
    {
      "constant": true,
      "inputs": [],
      "name": "wallet",
      "outputs": [
        {
          "internalType": "address payable",
          "name": "",
          "type": "address"
        }
      ],
      "payable": false,
      "stateMutability": "view",
      "type": "function"
    },
    {
      "constant": true,
      "inputs": [],
      "name": "weiRaised",
      "outputs": [
        {
          "internalType": "uint256",
          "name": "",
          "type": "uint256"
        }
      ],
      "payable": false,
      "stateMutability": "view",
      "type": "function"
    },
    {
      "constant": false,
      "inputs": [
        {
          "internalType": "address",
          "name": "beneficiary",
          "type": "address"
        }
      ],
      "name": "withdrawTokens",
      "outputs": [],
      "payable": false,
      "stateMutability": "nonpayable",
      "type": "function"
    },
    {
      "constant": false,
      "inputs": [],
      "name": "changeRound",
      "outputs": [],
      "payable": false,
      "stateMutability": "nonpayable",
      "type": "function"
    }
  ],
  "bytecode": "0x608060405262278d0042016011556000601260006101000a81548160ff021916908360058111156200002d57fe5b02179055503480156200003f57600080fd5b5060405162004e1638038062004e1683398181016040526101008110156200006657600080fd5b81019080805190602001909291908051906020019092919080519060200190929190805190602001909291908051906020019092919080519060200190929190805190602001909291908051906020019092919050505084848383868c8c8c6000620000d76200082060201b60201c565b9050806000806101000a81548173ffffffffffffffffffffffffffffffffffffffff021916908373ffffffffffffffffffffffffffffffffffffffff1602179055508073ffffffffffffffffffffffffffffffffffffffff16600073ffffffffffffffffffffffffffffffffffffffff167f8be0079c531659141344cd1fd0a4f28419497f9722a3daafe3b4186f6b6457e060405160405180910390a3506001600060146101000a81548160ff0219169083151502179055506000831162000207576040517f08c379a00000000000000000000000000000000000000000000000000000000081526004018080602001828103825260148152602001807f43726f776473616c653a2072617465206973203000000000000000000000000081525060200191505060405180910390fd5b600073ffffffffffffffffffffffffffffffffffffffff168273ffffffffffffffffffffffffffffffffffffffff1614156200028f576040517f08c379a000000000000000000000000000000000000000000000000000000000815260040180806020018281038252602581526020018062004df16025913960400191505060405180910390fd5b600073ffffffffffffffffffffffffffffffffffffffff168173ffffffffffffffffffffffffffffffffffffffff16141562000317576040517f08c379a000000000000000000000000000000000000000000000000000000000815260040180806020018281038252602481526020018062004dcd6024913960400191505060405180910390fd5b8260038190555081600260006101000a81548173ffffffffffffffffffffffffffffffffffffffff021916908373ffffffffffffffffffffffffffffffffffffffff16021790555080600160006101000a81548173ffffffffffffffffffffffffffffffffffffffff021916908373ffffffffffffffffffffffffffffffffffffffff160217905550505050600081116200041a576040517f08c379a00000000000000000000000000000000000000000000000000000000081526004018080602001828103825260198152602001807f43617070656443726f776473616c653a2063617020697320300000000000000081525060200191505060405180910390fd5b8060058190555050428210156200047d576040517f08c379a000000000000000000000000000000000000000000000000000000000815260040180806020018281038252603381526020018062004d2f6033913960400191505060405180910390fd5b818111620004d7576040517f08c379a000000000000000000000000000000000000000000000000000000000815260040180806020018281038252603781526020018062004d966037913960400191505060405180910390fd5b816006819055508060078190555050506000600860006101000a81548160ff0219169083151502179055506000811162000579576040517f08c379a000000000000000000000000000000000000000000000000000000000815260040180806020018281038252601e8152602001807f526566756e6461626c6543726f776473616c653a20676f616c2069732030000081525060200191505060405180910390fd5b620005896200082860201b60201c565b604051620005979062000ac0565b808273ffffffffffffffffffffffffffffffffffffffff1673ffffffffffffffffffffffffffffffffffffffff168152602001915050604051809103906000f080158015620005ea573d6000803e3d6000fd5b50600a60006101000a81548173ffffffffffffffffffffffffffffffffffffffff021916908373ffffffffffffffffffffffffffffffffffffffff1602179055508060098190555050604051620006419062000ace565b604051809103906000f0801580156200065e573d6000803e3d6000fd5b50600c60006101000a81548173ffffffffffffffffffffffffffffffffffffffff021916908373ffffffffffffffffffffffffffffffffffffffff160217905550600073ffffffffffffffffffffffffffffffffffffffff168173ffffffffffffffffffffffffffffffffffffffff16141562000727576040517f08c379a000000000000000000000000000000000000000000000000000000000815260040180806020018281038252603481526020018062004d626034913960400191505060405180910390fd5b80600d60006101000a81548173ffffffffffffffffffffffffffffffffffffffff021916908373ffffffffffffffffffffffffffffffffffffffff16021790555050600088116200077757600080fd5b600073ffffffffffffffffffffffffffffffffffffffff168773ffffffffffffffffffffffffffffffffffffffff161415620007b257600080fd5b600073ffffffffffffffffffffffffffffffffffffffff168673ffffffffffffffffffffffffffffffffffffffff161415620007ed57600080fd5b8760108190555081600f8190555080600e81905550620008126200085260201b60201c565b505050505050505062000adc565b600033905090565b6000600260009054906101000a900473ffffffffffffffffffffffffffffffffffffffff16905090565b6200086262000a5a60201b60201c565b620008d5576040517f08c379a00000000000000000000000000000000000000000000000000000000081526004018080602001828103825260208152602001807f4f776e61626c653a2063616c6c6572206973206e6f7420746865206f776e657281525060200191505060405180910390fd5b600e544211156200094e576040517f08c379a00000000000000000000000000000000000000000000000000000000081526004018080602001828103825260138152602001807f43726f776453616c652068617320456e6465640000000000000000000000000081525060200191505060405180910390fd5b600060058111156200095c57fe5b601260009054906101000a900460ff1660058111156200097857fe5b1415620009915760026010540260108190555062000a58565b600160058111156200099f57fe5b601260009054906101000a900460ff166005811115620009bb57fe5b1480620009ef575060026005811115620009d157fe5b601260009054906101000a900460ff166005811115620009ed57fe5b145b8062000a2257506003600581111562000a0457fe5b601260009054906101000a900460ff16600581111562000a2057fe5b145b1562000a425760026010548162000a3557fe5b0460108190555062000a57565b60046010548162000a4f57fe5b046010819055505b5b565b60008060009054906101000a900473ffffffffffffffffffffffffffffffffffffffff1673ffffffffffffffffffffffffffffffffffffffff1662000aa46200082060201b60201c565b73ffffffffffffffffffffffffffffffffffffffff1614905090565b61163280620030dd83390190565b610620806200470f83390190565b6125f18062000aec6000396000f3fe6080604052600436106101815760003560e01c80637d3d6522116100d1578063bff99c6c1161008a578063dd506e0911610064578063dd506e091461064d578063ec8ac4d814610664578063f2fde38b146106a8578063fc0c546a146106f957610181565b8063bff99c6c1461056c578063bffa55d5146105c3578063c040e6b81461061457610181565b80637d3d6522146104325780638da5cb5b146104615780638f32d59b146104b8578063b3f05b97146104e7578063b7a8807c14610516578063bf5839031461054157610181565b806349df728c1161013e5780634f935945116101185780634f93594514610330578063521eb2731461035f57806370a08231146103b6578063715018a61461041b57610181565b806349df728c1461029d5780634b6753bc146102ee5780634bb278f31461031957610181565b80631515bc2b146101935780632c4e722e146101c2578063355274ea146101ed57806340193883146102185780634042b66f1461024357806347535d7b1461026e575b61019161018c610750565b610758565b005b34801561019f57600080fd5b506101a86108e5565b604051808215151515815260200191505060405180910390f35b3480156101ce57600080fd5b506101d76108f1565b6040518082815260200191505060405180910390f35b3480156101f957600080fd5b506102026108fb565b6040518082815260200191505060405180910390f35b34801561022457600080fd5b5061022d610905565b6040518082815260200191505060405180910390f35b34801561024f57600080fd5b5061025861090f565b6040518082815260200191505060405180910390f35b34801561027a57600080fd5b50610283610919565b604051808215151515815260200191505060405180910390f35b3480156102a957600080fd5b506102ec600480360360208110156102c057600080fd5b81019080803573ffffffffffffffffffffffffffffffffffffffff169060200190929190505050610934565b005b3480156102fa57600080fd5b506103036109fa565b6040518082815260200191505060405180910390f35b34801561032557600080fd5b5061032e610a04565b005b34801561033c57600080fd5b50610345610b35565b604051808215151515815260200191505060405180910390f35b34801561036b57600080fd5b50610374610b49565b604051808273ffffffffffffffffffffffffffffffffffffffff1673ffffffffffffffffffffffffffffffffffffffff16815260200191505060405180910390f35b3480156103c257600080fd5b50610405600480360360208110156103d957600080fd5b81019080803573ffffffffffffffffffffffffffffffffffffffff169060200190929190505050610b73565b6040518082815260200191505060405180910390f35b34801561042757600080fd5b50610430610bbc565b005b34801561043e57600080fd5b50610447610cf5565b604051808215151515815260200191505060405180910390f35b34801561046d57600080fd5b50610476610d09565b604051808273ffffffffffffffffffffffffffffffffffffffff1673ffffffffffffffffffffffffffffffffffffffff16815260200191505060405180910390f35b3480156104c457600080fd5b506104cd610d32565b604051808215151515815260200191505060405180910390f35b3480156104f357600080fd5b506104fc610d90565b604051808215151515815260200191505060405180910390f35b34801561052257600080fd5b5061052b610da7565b6040518082815260200191505060405180910390f35b34801561054d57600080fd5b50610556610db1565b6040518082815260200191505060405180910390f35b34801561057857600080fd5b50610581610fb6565b604051808273ffffffffffffffffffffffffffffffffffffffff1673ffffffffffffffffffffffffffffffffffffffff16815260200191505060405180910390f35b3480156105cf57600080fd5b50610612600480360360208110156105e657600080fd5b81019080803573ffffffffffffffffffffffffffffffffffffffff169060200190929190505050610fe0565b005b34801561062057600080fd5b50610629611157565b6040518082600581111561063957fe5b60ff16815260200191505060405180910390f35b34801561065957600080fd5b5061066261116a565b005b6106a66004803603602081101561067a57600080fd5b81019080803573ffffffffffffffffffffffffffffffffffffffff169060200190929190505050610758565b005b3480156106b457600080fd5b506106f7600480360360208110156106cb57600080fd5b81019080803573ffffffffffffffffffffffffffffffffffffffff169060200190929190505050611329565b005b34801561070557600080fd5b5061070e6113af565b604051808273ffffffffffffffffffffffffffffffffffffffff1673ffffffffffffffffffffffffffffffffffffffff16815260200191505060405180910390f35b600033905090565b600060149054906101000a900460ff166107da576040517f08c379a000000000000000000000000000000000000000000000000000000000815260040180806020018281038252601f8152602001807f5265656e7472616e637947756172643a207265656e7472616e742063616c6c0081525060200191505060405180910390fd5b60008060146101000a81548160ff021916908315150217905550600034905061080382826113d9565b600061080e826113f6565b90506108258260045461141490919063ffffffff16565b600481905550610835838261149c565b8273ffffffffffffffffffffffffffffffffffffffff16610854610750565b73ffffffffffffffffffffffffffffffffffffffff167f6faf93231a456e552dbc9961f58d9713ee4f2e69d15f1975b050ef0911053a7b8484604051808381526020018281526020019250505060405180910390a36108b38383611561565b6108bb611565565b6108c58383611628565b50506001600060146101000a81548160ff02191690831515021790555050565b60006007544211905090565b6000600354905090565b6000600554905090565b6000600954905090565b6000600454905090565b6000600654421015801561092f57506007544211155b905090565b61093c610d90565b610991576040517f08c379a000000000000000000000000000000000000000000000000000000000815260040180806020018281038252602e815260200180612400602e913960400191505060405180910390fd5b610999610cf5565b6109ee576040517f08c379a00000000000000000000000000000000000000000000000000000000081526004018080602001828103825260318152602001806124546031913960400191505060405180910390fd5b6109f78161162c565b50565b6000600754905090565b600860009054906101000a900460ff1615610a6a576040517f08c379a00000000000000000000000000000000000000000000000000000000081526004018080602001828103825260278152602001806124de6027913960400191505060405180910390fd5b610a726108e5565b610ae4576040517f08c379a00000000000000000000000000000000000000000000000000000000081526004018080602001828103825260208152602001807f46696e616c697a61626c6543726f776473616c653a206e6f7420636c6f73656481525060200191505060405180910390fd5b6001600860006101000a81548160ff021916908315150217905550610b0761186b565b7f9270cc390c096600a1c17c44345a1ba689fafd99d97487b10cfccf86cf73183660405160405180910390a1565b6000600554610b4261090f565b1015905090565b6000600260009054906101000a900473ffffffffffffffffffffffffffffffffffffffff16905090565b6000600b60008373ffffffffffffffffffffffffffffffffffffffff1673ffffffffffffffffffffffffffffffffffffffff168152602001908152602001600020549050919050565b610bc4610d32565b610c36576040517f08c379a00000000000000000000000000000000000000000000000000000000081526004018080602001828103825260208152602001807f4f776e61626c653a2063616c6c6572206973206e6f7420746865206f776e657281525060200191505060405180910390fd5b600073ffffffffffffffffffffffffffffffffffffffff166000809054906101000a900473ffffffffffffffffffffffffffffffffffffffff1673ffffffffffffffffffffffffffffffffffffffff167f8be0079c531659141344cd1fd0a4f28419497f9722a3daafe3b4186f6b6457e060405160405180910390a360008060006101000a81548173ffffffffffffffffffffffffffffffffffffffff021916908373ffffffffffffffffffffffffffffffffffffffff160217905550565b6000600954610d0261090f565b1015905090565b60008060009054906101000a900473ffffffffffffffffffffffffffffffffffffffff16905090565b60008060009054906101000a900473ffffffffffffffffffffffffffffffffffffffff1673ffffffffffffffffffffffffffffffffffffffff16610d74610750565b73ffffffffffffffffffffffffffffffffffffffff1614905090565b6000600860009054906101000a900460ff16905090565b6000600654905090565b6000610fb1610dbe6113af565b73ffffffffffffffffffffffffffffffffffffffff166370a08231600d60009054906101000a900473ffffffffffffffffffffffffffffffffffffffff166040518263ffffffff1660e01b8152600401808273ffffffffffffffffffffffffffffffffffffffff1673ffffffffffffffffffffffffffffffffffffffff16815260200191505060206040518083038186803b158015610e5c57600080fd5b505afa158015610e70573d6000803e3d6000fd5b505050506040513d6020811015610e8657600080fd5b8101908080519060200190929190505050610e9f6113af565b73ffffffffffffffffffffffffffffffffffffffff1663dd62ed3e600d60009054906101000a900473ffffffffffffffffffffffffffffffffffffffff16306040518363ffffffff1660e01b8152600401808373ffffffffffffffffffffffffffffffffffffffff1673ffffffffffffffffffffffffffffffffffffffff1681526020018273ffffffffffffffffffffffffffffffffffffffff1673ffffffffffffffffffffffffffffffffffffffff1681526020019250505060206040518083038186803b158015610f7157600080fd5b505afa158015610f85573d6000803e3d6000fd5b505050506040513d6020811015610f9b57600080fd5b8101908080519060200190929190505050611a0e565b905090565b6000600d60009054906101000a900473ffffffffffffffffffffffffffffffffffffffff16905090565b610fe8610d90565b61103d576040517f08c379a00000000000000000000000000000000000000000000000000000000081526004018080602001828103825260228152602001806125716022913960400191505060405180910390fd5b611045610cf5565b1561109b576040517f08c379a00000000000000000000000000000000000000000000000000000000081526004018080602001828103825260218152602001806125056021913960400191505060405180910390fd5b600a60009054906101000a900473ffffffffffffffffffffffffffffffffffffffff1673ffffffffffffffffffffffffffffffffffffffff166351cff8d9826040518263ffffffff1660e01b8152600401808273ffffffffffffffffffffffffffffffffffffffff1673ffffffffffffffffffffffffffffffffffffffff168152602001915050600060405180830381600087803b15801561113c57600080fd5b505af1158015611150573d6000803e3d6000fd5b5050505050565b601260009054906101000a900460ff1681565b611172610d32565b6111e4576040517f08c379a00000000000000000000000000000000000000000000000000000000081526004018080602001828103825260208152602001807f4f776e61626c653a2063616c6c6572206973206e6f7420746865206f776e657281525060200191505060405180910390fd5b600e5442111561125c576040517f08c379a00000000000000000000000000000000000000000000000000000000081526004018080602001828103825260138152602001807f43726f776453616c652068617320456e6465640000000000000000000000000081525060200191505060405180910390fd5b600f544210156112d4576040517f08c379a00000000000000000000000000000000000000000000000000000000081526004018080602001828103825260198152602001807f43726f776453616c6520686173206e6f7420537461727465640000000000000081525060200191505060405180910390fd5b6001601260009054906101000a900460ff1660058111156112f157fe5b0160058111156112fd57fe5b601260006101000a81548160ff0219169083600581111561131a57fe5b0217905550611327611a27565b565b611331610d32565b6113a3576040517f08c379a00000000000000000000000000000000000000000000000000000000081526004018080602001828103825260208152602001807f4f776e61626c653a2063616c6c6572206973206e6f7420746865206f776e657281525060200191505060405180910390fd5b6113ac81611c15565b50565b6000600160009054906101000a900473ffffffffffffffffffffffffffffffffffffffff16905090565b6011544210156113e857600080fd5b6113f28282611d59565b5050565b600061140d60035483611de190919063ffffffff16565b9050919050565b600080828401905083811015611492576040517f08c379a000000000000000000000000000000000000000000000000000000000815260040180806020018281038252601b8152602001807f536166654d6174683a206164646974696f6e206f766572666c6f77000000000081525060200191505060405180910390fd5b8091505092915050565b6114ee81600b60008573ffffffffffffffffffffffffffffffffffffffff1673ffffffffffffffffffffffffffffffffffffffff1681526020019081526020016000205461141490919063ffffffff16565b600b60008473ffffffffffffffffffffffffffffffffffffffff1673ffffffffffffffffffffffffffffffffffffffff1681526020019081526020016000208190555061155d600c60009054906101000a900473ffffffffffffffffffffffffffffffffffffffff1682611e67565b5050565b5050565b600a60009054906101000a900473ffffffffffffffffffffffffffffffffffffffff1673ffffffffffffffffffffffffffffffffffffffff1663f340fa01346115ac610750565b6040518363ffffffff1660e01b8152600401808273ffffffffffffffffffffffffffffffffffffffff1673ffffffffffffffffffffffffffffffffffffffff1681526020019150506000604051808303818588803b15801561160d57600080fd5b505af1158015611621573d6000803e3d6000fd5b5050505050565b5050565b6116346108e5565b611689576040517f08c379a00000000000000000000000000000000000000000000000000000000081526004018080602001828103825260218152602001806125506021913960400191505060405180910390fd5b6000600b60008373ffffffffffffffffffffffffffffffffffffffff1673ffffffffffffffffffffffffffffffffffffffff16815260200190815260200160002054905060008111611726576040517f08c379a00000000000000000000000000000000000000000000000000000000081526004018080602001828103825260388152602001806124856038913960400191505060405180910390fd5b6000600b60008473ffffffffffffffffffffffffffffffffffffffff1673ffffffffffffffffffffffffffffffffffffffff16815260200190815260200160002081905550600c60009054906101000a900473ffffffffffffffffffffffffffffffffffffffff1673ffffffffffffffffffffffffffffffffffffffff1663beabacc86117b16113af565b84846040518463ffffffff1660e01b8152600401808473ffffffffffffffffffffffffffffffffffffffff1673ffffffffffffffffffffffffffffffffffffffff1681526020018373ffffffffffffffffffffffffffffffffffffffff1673ffffffffffffffffffffffffffffffffffffffff1681526020018281526020019350505050600060405180830381600087803b15801561184f57600080fd5b505af1158015611863573d6000803e3d6000fd5b505050505050565b611873610cf5565b1561198157600a60009054906101000a900473ffffffffffffffffffffffffffffffffffffffff1673ffffffffffffffffffffffffffffffffffffffff166343d726d66040518163ffffffff1660e01b8152600401600060405180830381600087803b1580156118e257600080fd5b505af11580156118f6573d6000803e3d6000fd5b50505050600a60009054906101000a900473ffffffffffffffffffffffffffffffffffffffff1673ffffffffffffffffffffffffffffffffffffffff16639af6549a6040518163ffffffff1660e01b8152600401600060405180830381600087803b15801561196457600080fd5b505af1158015611978573d6000803e3d6000fd5b50505050611a04565b600a60009054906101000a900473ffffffffffffffffffffffffffffffffffffffff1673ffffffffffffffffffffffffffffffffffffffff16638c52dc416040518163ffffffff1660e01b8152600401600060405180830381600087803b1580156119eb57600080fd5b505af11580156119ff573d6000803e3d6000fd5b505050505b611a0c611ec1565b565b6000818310611a1d5781611a1f565b825b905092915050565b611a2f610d32565b611aa1576040517f08c379a00000000000000000000000000000000000000000000000000000000081526004018080602001828103825260208152602001807f4f776e61626c653a2063616c6c6572206973206e6f7420746865206f776e657281525060200191505060405180910390fd5b600e54421115611b19576040517f08c379a00000000000000000000000000000000000000000000000000000000081526004018080602001828103825260138152602001807f43726f776453616c652068617320456e6465640000000000000000000000000081525060200191505060405180910390fd5b60006005811115611b2657fe5b601260009054906101000a900460ff166005811115611b4157fe5b1415611b5857600260105402601081905550611c13565b60016005811115611b6557fe5b601260009054906101000a900460ff166005811115611b8057fe5b1480611bb1575060026005811115611b9457fe5b601260009054906101000a900460ff166005811115611baf57fe5b145b80611be1575060036005811115611bc457fe5b601260009054906101000a900460ff166005811115611bdf57fe5b145b15611bfe57600260105481611bf257fe5b04601081905550611c12565b600460105481611c0a57fe5b046010819055505b5b565b600073ffffffffffffffffffffffffffffffffffffffff168173ffffffffffffffffffffffffffffffffffffffff161415611c9b576040517f08c379a000000000000000000000000000000000000000000000000000000000815260040180806020018281038252602681526020018061242e6026913960400191505060405180910390fd5b8073ffffffffffffffffffffffffffffffffffffffff166000809054906101000a900473ffffffffffffffffffffffffffffffffffffffff1673ffffffffffffffffffffffffffffffffffffffff167f8be0079c531659141344cd1fd0a4f28419497f9722a3daafe3b4186f6b6457e060405160405180910390a3806000806101000a81548173ffffffffffffffffffffffffffffffffffffffff021916908373ffffffffffffffffffffffffffffffffffffffff16021790555050565b611d61610919565b611dd3576040517f08c379a00000000000000000000000000000000000000000000000000000000081526004018080602001828103825260188152602001807f54696d656443726f776473616c653a206e6f74206f70656e000000000000000081525060200191505060405180910390fd5b611ddd8282611ec3565b5050565b600080831415611df45760009050611e61565b6000828402905082848281611e0557fe5b0414611e5c576040517f08c379a00000000000000000000000000000000000000000000000000000000081526004018080602001828103825260218152602001806124bd6021913960400191505060405180910390fd5b809150505b92915050565b611ebd600d60009054906101000a900473ffffffffffffffffffffffffffffffffffffffff168383611e976113af565b73ffffffffffffffffffffffffffffffffffffffff16611f62909392919063ffffffff16565b5050565b565b611ecd8282612068565b600554611eea82611edc61090f565b61141490919063ffffffff16565b1115611f5e576040517f08c379a000000000000000000000000000000000000000000000000000000000815260040180806020018281038252601d8152602001807f43617070656443726f776473616c653a2063617020657863656564656400000081525060200191505060405180910390fd5b5050565b612062848573ffffffffffffffffffffffffffffffffffffffff166323b872dd905060e01b858585604051602401808473ffffffffffffffffffffffffffffffffffffffff1673ffffffffffffffffffffffffffffffffffffffff1681526020018373ffffffffffffffffffffffffffffffffffffffff1673ffffffffffffffffffffffffffffffffffffffff1681526020018281526020019350505050604051602081830303815290604052907bffffffffffffffffffffffffffffffffffffffffffffffffffffffff19166020820180517bffffffffffffffffffffffffffffffffffffffffffffffffffffffff8381831617835250505050612169565b50505050565b600073ffffffffffffffffffffffffffffffffffffffff168273ffffffffffffffffffffffffffffffffffffffff1614156120ee576040517f08c379a000000000000000000000000000000000000000000000000000000000815260040180806020018281038252602a815260200180612526602a913960400191505060405180910390fd5b6000811415612165576040517f08c379a00000000000000000000000000000000000000000000000000000000081526004018080602001828103825260198152602001807f43726f776473616c653a20776569416d6f756e7420697320300000000000000081525060200191505060405180910390fd5b5050565b6121888273ffffffffffffffffffffffffffffffffffffffff166123b4565b6121fa576040517f08c379a000000000000000000000000000000000000000000000000000000000815260040180806020018281038252601f8152602001807f5361666545524332303a2063616c6c20746f206e6f6e2d636f6e74726163740081525060200191505060405180910390fd5b600060608373ffffffffffffffffffffffffffffffffffffffff16836040518082805190602001908083835b602083106122495780518252602082019150602081019050602083039250612226565b6001836020036101000a0380198251168184511680821785525050505050509050019150506000604051808303816000865af19150503d80600081146122ab576040519150601f19603f3d011682016040523d82523d6000602084013e6122b0565b606091505b509150915081612328576040517f08c379a00000000000000000000000000000000000000000000000000000000081526004018080602001828103825260208152602001807f5361666545524332303a206c6f772d6c6576656c2063616c6c206661696c656481525060200191505060405180910390fd5b6000815111156123ae5780806020019051602081101561234757600080fd5b81019080805190602001909291905050506123ad576040517f08c379a000000000000000000000000000000000000000000000000000000000815260040180806020018281038252602a815260200180612593602a913960400191505060405180910390fd5b5b50505050565b60008060007fc5d2460186f7233c927e7db2dcc703c0e500b653ca82273b7bfad8045d85a47060001b9050833f91508082141580156123f657506000801b8214155b9250505091905056fe526566756e6461626c65506f737444656c697665727943726f776473616c653a206e6f742066696e616c697a65644f776e61626c653a206e6577206f776e657220697320746865207a65726f2061646472657373526566756e6461626c65506f737444656c697665727943726f776473616c653a20676f616c206e6f742072656163686564506f737444656c697665727943726f776473616c653a2062656e6566696369617279206973206e6f742064756520616e7920746f6b656e73536166654d6174683a206d756c7469706c69636174696f6e206f766572666c6f7746696e616c697a61626c6543726f776473616c653a20616c72656164792066696e616c697a6564526566756e6461626c6543726f776473616c653a20676f616c207265616368656443726f776473616c653a2062656e656669636961727920697320746865207a65726f2061646472657373506f737444656c697665727943726f776473616c653a206e6f7420636c6f736564526566756e6461626c6543726f776473616c653a206e6f742066696e616c697a65645361666545524332303a204552433230206f7065726174696f6e20646964206e6f742073756363656564a265627a7a7231582078295eac7739a8f262c63c329d6875aa20de4c8b068472aa0f409472eaba39b464736f6c63430005110032608060405234801561001057600080fd5b506040516116323803806116328339818101604052602081101561003357600080fd5b810190808051906020019092919050505060006100546101eb60201b60201c565b9050806000806101000a81548173ffffffffffffffffffffffffffffffffffffffff021916908373ffffffffffffffffffffffffffffffffffffffff1602179055507f4101e71e974f68df5e9730cc223280b41654676bbb052cdcc735c3337e64d2d981604051808273ffffffffffffffffffffffffffffffffffffffff1673ffffffffffffffffffffffffffffffffffffffff16815260200191505060405180910390a150600073ffffffffffffffffffffffffffffffffffffffff168173ffffffffffffffffffffffffffffffffffffffff161415610180576040517f08c379a000000000000000000000000000000000000000000000000000000000815260040180806020018281038252602d815260200180611605602d913960400191505060405180910390fd5b80600260016101000a81548173ffffffffffffffffffffffffffffffffffffffff021916908373ffffffffffffffffffffffffffffffffffffffff1602179055506000600260006101000a81548160ff021916908360028111156101e057fe5b0217905550506101f3565b600033905090565b611403806102026000396000f3fe6080604052600436106100a75760003560e01c80638c52dc41116100645780638c52dc41146102765780639af6549a1461028d578063c19d93fb146102a4578063c6dbdf61146102dd578063e3a9db1a14610334578063f340fa0114610399576100a7565b80632348238c146100ac57806338af3eed146100fd57806343d726d61461015457806351cff8d91461016b5780636809691a146101bc578063685ca1941461020d575b600080fd5b3480156100b857600080fd5b506100fb600480360360208110156100cf57600080fd5b81019080803573ffffffffffffffffffffffffffffffffffffffff1690602001909291905050506103dd565b005b34801561010957600080fd5b506101126105b5565b604051808273ffffffffffffffffffffffffffffffffffffffff1673ffffffffffffffffffffffffffffffffffffffff16815260200191505060405180910390f35b34801561016057600080fd5b506101696105df565b005b34801561017757600080fd5b506101ba6004803603602081101561018e57600080fd5b81019080803573ffffffffffffffffffffffffffffffffffffffff16906020019092919050505061075a565b005b3480156101c857600080fd5b5061020b600480360360208110156101df57600080fd5b81019080803573ffffffffffffffffffffffffffffffffffffffff1690602001909291905050506107c4565b005b34801561021957600080fd5b5061025c6004803603602081101561023057600080fd5b81019080803573ffffffffffffffffffffffffffffffffffffffff169060200190929190505050610974565b604051808215151515815260200191505060405180910390f35b34801561028257600080fd5b5061028b6109a6565b005b34801561029957600080fd5b506102a2610b22565b005b3480156102b057600080fd5b506102b9610c0a565b604051808260028111156102c957fe5b60ff16815260200191505060405180910390f35b3480156102e957600080fd5b506102f2610c21565b604051808273ffffffffffffffffffffffffffffffffffffffff1673ffffffffffffffffffffffffffffffffffffffff16815260200191505060405180910390f35b34801561034057600080fd5b506103836004803603602081101561035757600080fd5b81019080803573ffffffffffffffffffffffffffffffffffffffff169060200190929190505050610c4a565b6040518082815260200191505060405180910390f35b6103db600480360360208110156103af57600080fd5b81019080803573ffffffffffffffffffffffffffffffffffffffff169060200190929190505050610c93565b005b6000809054906101000a900473ffffffffffffffffffffffffffffffffffffffff1673ffffffffffffffffffffffffffffffffffffffff1661041d610d1d565b73ffffffffffffffffffffffffffffffffffffffff1614610489576040517f08c379a000000000000000000000000000000000000000000000000000000000815260040180806020018281038252602c815260200180611371602c913960400191505060405180910390fd5b600073ffffffffffffffffffffffffffffffffffffffff168173ffffffffffffffffffffffffffffffffffffffff16141561050f576040517f08c379a000000000000000000000000000000000000000000000000000000000815260040180806020018281038252602a815260200180611347602a913960400191505060405180910390fd5b806000806101000a81548173ffffffffffffffffffffffffffffffffffffffff021916908373ffffffffffffffffffffffffffffffffffffffff1602179055507f4101e71e974f68df5e9730cc223280b41654676bbb052cdcc735c3337e64d2d981604051808273ffffffffffffffffffffffffffffffffffffffff1673ffffffffffffffffffffffffffffffffffffffff16815260200191505060405180910390a150565b6000600260019054906101000a900473ffffffffffffffffffffffffffffffffffffffff16905090565b6000809054906101000a900473ffffffffffffffffffffffffffffffffffffffff1673ffffffffffffffffffffffffffffffffffffffff1661061f610d1d565b73ffffffffffffffffffffffffffffffffffffffff161461068b576040517f08c379a000000000000000000000000000000000000000000000000000000000815260040180806020018281038252602c815260200180611371602c913960400191505060405180910390fd5b6000600281111561069857fe5b600260009054906101000a900460ff1660028111156106b357fe5b14610709576040517f08c379a000000000000000000000000000000000000000000000000000000000815260040180806020018281038252602981526020018061131e6029913960400191505060405180910390fd5b60028060006101000a81548160ff0219169083600281111561072757fe5b02179055507f088672c3a6e342f7cd94a65ba63b79df24a8973927b4d05d803c44bbf787d12f60405160405180910390a1565b61076381610974565b6107b8576040517f08c379a00000000000000000000000000000000000000000000000000000000081526004018080602001828103825260338152602001806112eb6033913960400191505060405180910390fd5b6107c181610d25565b50565b6000809054906101000a900473ffffffffffffffffffffffffffffffffffffffff1673ffffffffffffffffffffffffffffffffffffffff16610804610d1d565b73ffffffffffffffffffffffffffffffffffffffff1614610870576040517f08c379a000000000000000000000000000000000000000000000000000000000815260040180806020018281038252602c815260200180611371602c913960400191505060405180910390fd5b6000600160008373ffffffffffffffffffffffffffffffffffffffff1673ffffffffffffffffffffffffffffffffffffffff1681526020019081526020016000205490506000600160008473ffffffffffffffffffffffffffffffffffffffff1673ffffffffffffffffffffffffffffffffffffffff16815260200190815260200160002081905550610922818373ffffffffffffffffffffffffffffffffffffffff16610ef390919063ffffffff16565b8173ffffffffffffffffffffffffffffffffffffffff167f7084f5476618d8e60b11ef0d7d3f06914655adb8793e28ff7f018d4c76d505d5826040518082815260200191505060405180910390a25050565b60006001600281111561098357fe5b600260009054906101000a900460ff16600281111561099e57fe5b149050919050565b6000809054906101000a900473ffffffffffffffffffffffffffffffffffffffff1673ffffffffffffffffffffffffffffffffffffffff166109e6610d1d565b73ffffffffffffffffffffffffffffffffffffffff1614610a52576040517f08c379a000000000000000000000000000000000000000000000000000000000815260040180806020018281038252602c815260200180611371602c913960400191505060405180910390fd5b60006002811115610a5f57fe5b600260009054906101000a900460ff166002811115610a7a57fe5b14610ad0576040517f08c379a000000000000000000000000000000000000000000000000000000000815260040180806020018281038252603281526020018061139d6032913960400191505060405180910390fd5b6001600260006101000a81548160ff02191690836002811115610aef57fe5b02179055507f599d8e5a83cffb867d051598c4d70e805d59802d8081c1c7d6dffc5b6aca2b8960405160405180910390a1565b600280811115610b2e57fe5b600260009054906101000a900460ff166002811115610b4957fe5b14610b9f576040517f08c379a000000000000000000000000000000000000000000000000000000000815260040180806020018281038252603881526020018061124e6038913960400191505060405180910390fd5b600260019054906101000a900473ffffffffffffffffffffffffffffffffffffffff1673ffffffffffffffffffffffffffffffffffffffff166108fc479081150290604051600060405180830381858888f19350505050158015610c07573d6000803e3d6000fd5b50565b6000600260009054906101000a900460ff16905090565b60008060009054906101000a900473ffffffffffffffffffffffffffffffffffffffff16905090565b6000600160008373ffffffffffffffffffffffffffffffffffffffff1673ffffffffffffffffffffffffffffffffffffffff168152602001908152602001600020549050919050565b60006002811115610ca057fe5b600260009054906101000a900460ff166002811115610cbb57fe5b14610d11576040517f08c379a000000000000000000000000000000000000000000000000000000000815260040180806020018281038252602b8152602001806112c0602b913960400191505060405180910390fd5b610d1a8161102d565b50565b600033905090565b6000809054906101000a900473ffffffffffffffffffffffffffffffffffffffff1673ffffffffffffffffffffffffffffffffffffffff16610d65610d1d565b73ffffffffffffffffffffffffffffffffffffffff1614610dd1576040517f08c379a000000000000000000000000000000000000000000000000000000000815260040180806020018281038252602c815260200180611371602c913960400191505060405180910390fd5b6000600160008373ffffffffffffffffffffffffffffffffffffffff1673ffffffffffffffffffffffffffffffffffffffff1681526020019081526020016000205490506000600160008473ffffffffffffffffffffffffffffffffffffffff1673ffffffffffffffffffffffffffffffffffffffff168152602001908152602001600020819055508173ffffffffffffffffffffffffffffffffffffffff166108fc829081150290604051600060405180830381858888f19350505050158015610ea0573d6000803e3d6000fd5b508173ffffffffffffffffffffffffffffffffffffffff167f7084f5476618d8e60b11ef0d7d3f06914655adb8793e28ff7f018d4c76d505d5826040518082815260200191505060405180910390a25050565b80471015610f69576040517f08c379a000000000000000000000000000000000000000000000000000000000815260040180806020018281038252601d8152602001807f416464726573733a20696e73756666696369656e742062616c616e636500000081525060200191505060405180910390fd5b60008273ffffffffffffffffffffffffffffffffffffffff168260405180600001905060006040518083038185875af1925050503d8060008114610fc9576040519150601f19603f3d011682016040523d82523d6000602084013e610fce565b606091505b5050905080611028576040517f08c379a000000000000000000000000000000000000000000000000000000000815260040180806020018281038252603a815260200180611286603a913960400191505060405180910390fd5b505050565b6000809054906101000a900473ffffffffffffffffffffffffffffffffffffffff1673ffffffffffffffffffffffffffffffffffffffff1661106d610d1d565b73ffffffffffffffffffffffffffffffffffffffff16146110d9576040517f08c379a000000000000000000000000000000000000000000000000000000000815260040180806020018281038252602c815260200180611371602c913960400191505060405180910390fd5b600034905061113081600160008573ffffffffffffffffffffffffffffffffffffffff1673ffffffffffffffffffffffffffffffffffffffff168152602001908152602001600020546111c590919063ffffffff16565b600160008473ffffffffffffffffffffffffffffffffffffffff1673ffffffffffffffffffffffffffffffffffffffff168152602001908152602001600020819055508173ffffffffffffffffffffffffffffffffffffffff167f2da466a7b24304f47e87fa2e1e5a81b9831ce54fec19055ce277ca2f39ba42c4826040518082815260200191505060405180910390a25050565b600080828401905083811015611243576040517f08c379a000000000000000000000000000000000000000000000000000000000815260040180806020018281038252601b8152602001807f536166654d6174683a206164646974696f6e206f766572666c6f77000000000081525060200191505060405180910390fd5b809150509291505056fe526566756e64457363726f773a2062656e65666963696172792063616e206f6e6c79207769746864726177207768696c6520636c6f736564416464726573733a20756e61626c6520746f2073656e642076616c75652c20726563697069656e74206d61792068617665207265766572746564526566756e64457363726f773a2063616e206f6e6c79206465706f736974207768696c6520616374697665436f6e646974696f6e616c457363726f773a207061796565206973206e6f7420616c6c6f77656420746f207769746864726177526566756e64457363726f773a2063616e206f6e6c7920636c6f7365207768696c65206163746976655365636f6e646172793a206e6577207072696d61727920697320746865207a65726f20616464726573735365636f6e646172793a2063616c6c6572206973206e6f7420746865207072696d617279206163636f756e74526566756e64457363726f773a2063616e206f6e6c7920656e61626c6520726566756e6473207768696c6520616374697665a265627a7a723158202fbc2f694c26a4b10c81651a67b91f433236af10e9a32e3b4534b41ffb5148ae64736f6c63430005110032526566756e64457363726f773a2062656e656669636961727920697320746865207a65726f2061646472657373608060405260006100146100bf60201b60201c565b9050806000806101000a81548173ffffffffffffffffffffffffffffffffffffffff021916908373ffffffffffffffffffffffffffffffffffffffff1602179055507f4101e71e974f68df5e9730cc223280b41654676bbb052cdcc735c3337e64d2d981604051808273ffffffffffffffffffffffffffffffffffffffff1673ffffffffffffffffffffffffffffffffffffffff16815260200191505060405180910390a1506100c7565b600033905090565b61054a806100d66000396000f3fe608060405234801561001057600080fd5b50600436106100415760003560e01c80632348238c14610046578063beabacc81461008a578063c6dbdf61146100f8575b600080fd5b6100886004803603602081101561005c57600080fd5b81019080803573ffffffffffffffffffffffffffffffffffffffff169060200190929190505050610142565b005b6100f6600480360360608110156100a057600080fd5b81019080803573ffffffffffffffffffffffffffffffffffffffff169060200190929190803573ffffffffffffffffffffffffffffffffffffffff1690602001909291908035906020019092919050505061031a565b005b61010061048e565b604051808273ffffffffffffffffffffffffffffffffffffffff1673ffffffffffffffffffffffffffffffffffffffff16815260200191505060405180910390f35b6000809054906101000a900473ffffffffffffffffffffffffffffffffffffffff1673ffffffffffffffffffffffffffffffffffffffff166101826104b7565b73ffffffffffffffffffffffffffffffffffffffff16146101ee576040517f08c379a000000000000000000000000000000000000000000000000000000000815260040180806020018281038252602c8152602001806104ea602c913960400191505060405180910390fd5b600073ffffffffffffffffffffffffffffffffffffffff168173ffffffffffffffffffffffffffffffffffffffff161415610274576040517f08c379a000000000000000000000000000000000000000000000000000000000815260040180806020018281038252602a8152602001806104c0602a913960400191505060405180910390fd5b806000806101000a81548173ffffffffffffffffffffffffffffffffffffffff021916908373ffffffffffffffffffffffffffffffffffffffff1602179055507f4101e71e974f68df5e9730cc223280b41654676bbb052cdcc735c3337e64d2d981604051808273ffffffffffffffffffffffffffffffffffffffff1673ffffffffffffffffffffffffffffffffffffffff16815260200191505060405180910390a150565b6000809054906101000a900473ffffffffffffffffffffffffffffffffffffffff1673ffffffffffffffffffffffffffffffffffffffff1661035a6104b7565b73ffffffffffffffffffffffffffffffffffffffff16146103c6576040517f08c379a000000000000000000000000000000000000000000000000000000000815260040180806020018281038252602c8152602001806104ea602c913960400191505060405180910390fd5b8273ffffffffffffffffffffffffffffffffffffffff1663a9059cbb83836040518363ffffffff1660e01b8152600401808373ffffffffffffffffffffffffffffffffffffffff1673ffffffffffffffffffffffffffffffffffffffff16815260200182815260200192505050602060405180830381600087803b15801561044d57600080fd5b505af1158015610461573d6000803e3d6000fd5b505050506040513d602081101561047757600080fd5b810190808051906020019092919050505050505050565b60008060009054906101000a900473ffffffffffffffffffffffffffffffffffffffff16905090565b60003390509056fe5365636f6e646172793a206e6577207072696d61727920697320746865207a65726f20616464726573735365636f6e646172793a2063616c6c6572206973206e6f7420746865207072696d617279206163636f756e74a265627a7a7231582072907d999710e0ff5dbf98a2bf4abec9261414bd34b51839e75465177de9da2a64736f6c6343000511003254696d656443726f776473616c653a206f70656e696e672074696d65206973206265666f72652063757272656e742074696d65416c6c6f77616e636543726f776473616c653a20746f6b656e2077616c6c657420697320746865207a65726f206164647265737354696d656443726f776473616c653a206f70656e696e672074696d65206973206e6f74206265666f726520636c6f73696e672074696d6543726f776473616c653a20746f6b656e20697320746865207a65726f206164647265737343726f776473616c653a2077616c6c657420697320746865207a65726f2061646472657373",
  "source": "pragma solidity >=0.5.0;\n\n// import \"./Token_Generation.sol\";\nimport \"@openzeppelin/contracts/token/ERC20/IERC20.sol\";\nimport \"@openzeppelin/contracts/crowdsale/Crowdsale.sol\";\nimport \"@openzeppelin/contracts/crowdsale/validation/CappedCrowdsale.sol\";\nimport \"@openzeppelin/contracts/crowdsale/validation/TimedCrowdsale.sol\";\nimport \"@openzeppelin/contracts/ownership/Ownable.sol\";\nimport \"@openzeppelin/contracts/crowdsale/distribution/RefundablePostDeliveryCrowdsale.sol\";\nimport \"@openzeppelin/contracts/crowdsale/emission/AllowanceCrowdsale.sol\";\nimport \"@openzeppelin/contracts/token/ERC20/TokenTimelock.sol\";\n\n\ncontract MyICO is Ownable, Crowdsale, CappedCrowdsale, TimedCrowdsale, RefundablePostDeliveryCrowdsale, AllowanceCrowdsale{\n\n    //mapping(address => uint) public contributions;\n    //uint _softcap;\n    //uint _hardcap;\n    uint _endTime;\n    uint _startTime;\n    uint ourRate;\n    uint _lock = now+30*1 days;\n    // bool mint = false;\n    //address owner;\n    // IERC20 _token;\n\n    // uint ourGoal;\n\n    enum CrowdsaleStage { PreICO, ICO, Round1, Round2, Round3, SaleEnd }\n    CrowdsaleStage public stage = CrowdsaleStage.PreICO;\n\n    //event SaleEnded(address a);\n\n    constructor(uint256 rate, address payable wallet, IERC20 token, address tokenOwner, uint softcap,  uint hardcap, uint startTime, uint endTime)\n\n    Crowdsale(rate, wallet, token)\n    // TokenTimelock(token, others, now + 52*1 weeks)\n    AllowanceCrowdsale(tokenOwner)\n    CappedCrowdsale(hardcap)\n    RefundableCrowdsale(softcap)\n    TimedCrowdsale(startTime, endTime) public{\n\n        //address deployed_address = MyToken.getAddress();\n        //require(address(msg.sender) == address(deployed_address), \"Owner of Token can create ICO\");\n\n        require(rate > 0);\n        require(wallet != address(0));\n        require(address(token) != address(0));\n        //owner = msg.sender;\n        // _token = token;\n        ourRate = rate;\n        //_softcap = softcap;\n        //_hardcap = hardcap;\n        _startTime = startTime;\n        _endTime = endTime;\n        applyBonus();\n    }\n\n\n    // modifier isOwner(){\n\n    //     require(msg.sender == owner, \"Only owner of the contract can call this\");\n    //     _;\n\n    // }\n\n    modifier beforeEnd(){\n\n        require(now <= _endTime, \"CrowdSale has Ended\");\n        _;\n\n    }\n\n    modifier afterStart(){\n\n        require(now >= _startTime, \"CrowdSale has not Started\");\n        _;\n\n    }\n\n\n    function _preValidatePurchase(address _beneficiary, uint256 _weiAmount) internal view{\n\n        require(block.timestamp >= _lock);\n        super._preValidatePurchase(_beneficiary, _weiAmount);\n\n    }\n\n\n    function changeRound() public onlyOwner() beforeEnd() afterStart(){\n\n        stage = CrowdsaleStage(int(stage) + 1);\n        applyBonus();\n\n    }\n\n\n    function applyBonus() internal onlyOwner() beforeEnd(){\n\n\n        if(stage == CrowdsaleStage.PreICO){\n            ourRate = ourRate*2;\n\n        }\n        else if (stage == CrowdsaleStage.ICO || stage == CrowdsaleStage.Round1 || stage == CrowdsaleStage.Round2) {\n            ourRate = ourRate/2;\n        }\n\n        else{\n            ourRate = ourRate/4;\n        }\n\n    }\n\n\n}\n",
  "sourcePath": "/home/dishant/AMAG-ICO/contracts/BaseCrowdsale.sol",
  "compiler": {
    "name": "solc",
    "version": "0.5.17+commit.d19bba13.Emscripten.clang"
  },
  "schemaVersion": "3.3.2",
  "updatedAt": "2020-12-10T10:51:47.188Z",
  "devdoc": {
    "methods": {
      "balanceOf(address)": {
        "return": "the balance of an account."
      },
      "buyTokens(address)": {
        "details": "low level token purchase ***DO NOT OVERRIDE*** This function has a non-reentrancy guard, so it shouldn't be called by another `nonReentrant` function.",
        "params": {
          "beneficiary": "Recipient of the token purchase"
        }
      },
      "cap()": {
        "return": "the cap of the crowdsale."
      },
      "capReached()": {
        "details": "Checks whether the cap has been reached.",
        "return": "Whether the cap was reached"
      },
      "claimRefund(address)": {
        "details": "Investors can claim refunds here if crowdsale is unsuccessful.",
        "params": {
          "refundee": "Whose refund will be claimed."
        }
      },
      "closingTime()": {
        "return": "the crowdsale closing time."
      },
      "finalize()": {
        "details": "Must be called after crowdsale ends, to do some extra finalization work. Calls the contract's finalization function."
      },
      "finalized()": {
        "return": "true if the crowdsale is finalized, false otherwise."
      },
      "goal()": {
        "return": "minimum amount of funds to be raised in wei."
      },
      "goalReached()": {
        "details": "Checks whether funding goal was reached.",
        "return": "Whether funding goal was reached"
      },
      "hasClosed()": {
        "details": "Checks whether the period in which the crowdsale is open has already elapsed.",
        "return": "Whether crowdsale period has elapsed"
      },
      "isOpen()": {
        "return": "true if the crowdsale is open, false otherwise."
      },
      "isOwner()": {
        "details": "Returns true if the caller is the current owner."
      },
      "openingTime()": {
        "return": "the crowdsale opening time."
      },
      "owner()": {
        "details": "Returns the address of the current owner."
      },
      "rate()": {
        "return": "the number of token units a buyer gets per wei."
      },
      "remainingTokens()": {
        "details": "Checks the amount of tokens left in the allowance.",
        "return": "Amount of tokens left in the allowance"
      },
      "renounceOwnership()": {
        "details": "Leaves the contract without owner. It will not be possible to call `onlyOwner` functions anymore. Can only be called by the current owner.     * NOTE: Renouncing ownership will leave the contract without an owner, thereby removing any functionality that is only available to the owner."
      },
      "token()": {
        "return": "the token being sold."
      },
      "tokenWallet()": {
        "return": "the address of the wallet that will hold the tokens."
      },
      "transferOwnership(address)": {
        "details": "Transfers ownership of the contract to a new account (`newOwner`). Can only be called by the current owner."
      },
      "wallet()": {
        "return": "the address where funds are collected."
      },
      "weiRaised()": {
        "return": "the amount of wei raised."
      }
    }
  },
  "userdoc": {
    "methods": {}
  }
}